{
  "address": "0x8436F16c090B0A6B2A7ae4CfCc82E007302a4b38",
  "abi": [
    {
      "inputs": [
        {
          "internalType": "contract ENS",
          "name": "_ens",
          "type": "address"
        },
        {
          "internalType": "bytes32",
          "name": "_baseNode",
          "type": "bytes32"
        }
      ],
      "stateMutability": "nonpayable",
      "type": "constructor"
    },
    {
      "anonymous": false,
      "inputs": [
        {
          "indexed": true,
          "internalType": "address",
          "name": "owner",
          "type": "address"
        },
        {
          "indexed": true,
          "internalType": "address",
          "name": "approved",
          "type": "address"
        },
        {
          "indexed": true,
          "internalType": "uint256",
          "name": "tokenId",
          "type": "uint256"
        }
      ],
      "name": "Approval",
      "type": "event"
    },
    {
      "anonymous": false,
      "inputs": [
        {
          "indexed": true,
          "internalType": "address",
          "name": "owner",
          "type": "address"
        },
        {
          "indexed": true,
          "internalType": "address",
          "name": "operator",
          "type": "address"
        },
        {
          "indexed": false,
          "internalType": "bool",
          "name": "approved",
          "type": "bool"
        }
      ],
      "name": "ApprovalForAll",
      "type": "event"
    },
    {
      "anonymous": false,
      "inputs": [
        {
          "indexed": true,
          "internalType": "address",
          "name": "controller",
          "type": "address"
        }
      ],
      "name": "ControllerAdded",
      "type": "event"
    },
    {
      "anonymous": false,
      "inputs": [
        {
          "indexed": true,
          "internalType": "address",
          "name": "controller",
          "type": "address"
        }
      ],
      "name": "ControllerRemoved",
      "type": "event"
    },
    {
      "anonymous": false,
      "inputs": [
        {
          "indexed": true,
          "internalType": "uint256",
          "name": "id",
          "type": "uint256"
        },
        {
          "indexed": true,
          "internalType": "address",
          "name": "owner",
          "type": "address"
        }
      ],
      "name": "NameRegistered",
      "type": "event"
    },
    {
      "anonymous": false,
      "inputs": [
        {
          "indexed": true,
          "internalType": "address",
          "name": "previousOwner",
          "type": "address"
        },
        {
          "indexed": true,
          "internalType": "address",
          "name": "newOwner",
          "type": "address"
        }
      ],
      "name": "OwnershipTransferred",
      "type": "event"
    },
    {
      "anonymous": false,
      "inputs": [
        {
          "indexed": true,
          "internalType": "address",
          "name": "from",
          "type": "address"
        },
        {
          "indexed": true,
          "internalType": "address",
          "name": "to",
          "type": "address"
        },
        {
          "indexed": true,
          "internalType": "uint256",
          "name": "tokenId",
          "type": "uint256"
        }
      ],
      "name": "Transfer",
      "type": "event"
    },
    {
      "inputs": [
        {
          "internalType": "address",
          "name": "controller",
          "type": "address"
        }
      ],
      "name": "addController",
      "outputs": [],
      "stateMutability": "nonpayable",
      "type": "function"
    },
    {
      "inputs": [
        {
          "internalType": "address",
          "name": "to",
          "type": "address"
        },
        {
          "internalType": "uint256",
          "name": "tokenId",
          "type": "uint256"
        }
      ],
      "name": "approve",
      "outputs": [],
      "stateMutability": "nonpayable",
      "type": "function"
    },
    {
      "inputs": [
        {
          "internalType": "uint256",
          "name": "id",
          "type": "uint256"
        }
      ],
      "name": "available",
      "outputs": [
        {
          "internalType": "bool",
          "name": "",
          "type": "bool"
        }
      ],
      "stateMutability": "view",
      "type": "function"
    },
    {
      "inputs": [
        {
          "internalType": "address",
          "name": "owner",
          "type": "address"
        }
      ],
      "name": "balanceOf",
      "outputs": [
        {
          "internalType": "uint256",
          "name": "",
          "type": "uint256"
        }
      ],
      "stateMutability": "view",
      "type": "function"
    },
    {
      "inputs": [],
      "name": "baseNode",
      "outputs": [
        {
          "internalType": "bytes32",
          "name": "",
          "type": "bytes32"
        }
      ],
      "stateMutability": "view",
      "type": "function"
    },
    {
      "inputs": [
        {
          "internalType": "address",
          "name": "",
          "type": "address"
        }
      ],
      "name": "controllers",
      "outputs": [
        {
          "internalType": "bool",
          "name": "",
          "type": "bool"
        }
      ],
      "stateMutability": "view",
      "type": "function"
    },
    {
      "inputs": [],
      "name": "ens",
      "outputs": [
        {
          "internalType": "contract ENS",
          "name": "",
          "type": "address"
        }
      ],
      "stateMutability": "view",
      "type": "function"
    },
    {
      "inputs": [
        {
          "internalType": "uint256",
          "name": "tokenId",
          "type": "uint256"
        }
      ],
      "name": "getApproved",
      "outputs": [
        {
          "internalType": "address",
          "name": "",
          "type": "address"
        }
      ],
      "stateMutability": "view",
      "type": "function"
    },
    {
      "inputs": [
        {
          "internalType": "address",
          "name": "owner",
          "type": "address"
        },
        {
          "internalType": "address",
          "name": "operator",
          "type": "address"
        }
      ],
      "name": "isApprovedForAll",
      "outputs": [
        {
          "internalType": "bool",
          "name": "",
          "type": "bool"
        }
      ],
      "stateMutability": "view",
      "type": "function"
    },
    {
      "inputs": [],
      "name": "name",
      "outputs": [
        {
          "internalType": "string",
          "name": "",
          "type": "string"
        }
      ],
      "stateMutability": "view",
      "type": "function"
    },
    {
      "inputs": [],
      "name": "owner",
      "outputs": [
        {
          "internalType": "address",
          "name": "",
          "type": "address"
        }
      ],
      "stateMutability": "view",
      "type": "function"
    },
    {
      "inputs": [
        {
          "internalType": "uint256",
          "name": "tokenId",
          "type": "uint256"
        }
      ],
      "name": "ownerOf",
      "outputs": [
        {
          "internalType": "address",
          "name": "",
          "type": "address"
        }
      ],
      "stateMutability": "view",
      "type": "function"
    },
    {
      "inputs": [
        {
          "internalType": "uint256",
          "name": "id",
          "type": "uint256"
        },
        {
          "internalType": "address",
          "name": "owner",
          "type": "address"
        }
      ],
      "name": "reclaim",
      "outputs": [],
      "stateMutability": "nonpayable",
      "type": "function"
    },
    {
      "inputs": [
        {
          "internalType": "uint256",
          "name": "id",
          "type": "uint256"
        },
        {
          "internalType": "address",
          "name": "owner",
          "type": "address"
        }
      ],
      "name": "register",
      "outputs": [],
      "stateMutability": "nonpayable",
      "type": "function"
    },
    {
      "inputs": [
        {
          "internalType": "uint256",
          "name": "id",
          "type": "uint256"
        },
        {
          "internalType": "address",
          "name": "owner",
          "type": "address"
        }
      ],
      "name": "registerOnly",
      "outputs": [],
      "stateMutability": "nonpayable",
      "type": "function"
    },
    {
      "inputs": [
        {
          "internalType": "address",
          "name": "controller",
          "type": "address"
        }
      ],
      "name": "removeController",
      "outputs": [],
      "stateMutability": "nonpayable",
      "type": "function"
    },
    {
      "inputs": [],
      "name": "renounceOwnership",
      "outputs": [],
      "stateMutability": "nonpayable",
      "type": "function"
    },
    {
      "inputs": [
        {
          "internalType": "address",
          "name": "from",
          "type": "address"
        },
        {
          "internalType": "address",
          "name": "to",
          "type": "address"
        },
        {
          "internalType": "uint256",
          "name": "tokenId",
          "type": "uint256"
        }
      ],
      "name": "safeTransferFrom",
      "outputs": [],
      "stateMutability": "nonpayable",
      "type": "function"
    },
    {
      "inputs": [
        {
          "internalType": "address",
          "name": "from",
          "type": "address"
        },
        {
          "internalType": "address",
          "name": "to",
          "type": "address"
        },
        {
          "internalType": "uint256",
          "name": "tokenId",
          "type": "uint256"
        },
        {
          "internalType": "bytes",
          "name": "_data",
          "type": "bytes"
        }
      ],
      "name": "safeTransferFrom",
      "outputs": [],
      "stateMutability": "nonpayable",
      "type": "function"
    },
    {
      "inputs": [
        {
          "internalType": "address",
          "name": "operator",
          "type": "address"
        },
        {
          "internalType": "bool",
          "name": "approved",
          "type": "bool"
        }
      ],
      "name": "setApprovalForAll",
      "outputs": [],
      "stateMutability": "nonpayable",
      "type": "function"
    },
    {
      "inputs": [
        {
          "internalType": "address",
          "name": "resolver",
          "type": "address"
        }
      ],
      "name": "setResolver",
      "outputs": [],
      "stateMutability": "nonpayable",
      "type": "function"
    },
    {
      "inputs": [
        {
          "internalType": "bytes4",
          "name": "interfaceID",
          "type": "bytes4"
        }
      ],
      "name": "supportsInterface",
      "outputs": [
        {
          "internalType": "bool",
          "name": "",
          "type": "bool"
        }
      ],
      "stateMutability": "view",
      "type": "function"
    },
    {
      "inputs": [],
      "name": "symbol",
      "outputs": [
        {
          "internalType": "string",
          "name": "",
          "type": "string"
        }
      ],
      "stateMutability": "view",
      "type": "function"
    },
    {
      "inputs": [
        {
          "internalType": "uint256",
          "name": "tokenId",
          "type": "uint256"
        }
      ],
      "name": "tokenURI",
      "outputs": [
        {
          "internalType": "string",
          "name": "",
          "type": "string"
        }
      ],
      "stateMutability": "view",
      "type": "function"
    },
    {
      "inputs": [
        {
          "internalType": "address",
          "name": "from",
          "type": "address"
        },
        {
          "internalType": "address",
          "name": "to",
          "type": "address"
        },
        {
          "internalType": "uint256",
          "name": "tokenId",
          "type": "uint256"
        }
      ],
      "name": "transferFrom",
      "outputs": [],
      "stateMutability": "nonpayable",
      "type": "function"
    },
    {
      "inputs": [
        {
          "internalType": "address",
          "name": "newOwner",
          "type": "address"
        }
      ],
      "name": "transferOwnership",
      "outputs": [],
      "stateMutability": "nonpayable",
      "type": "function"
    }
  ],
  "transactionHash": "0xccfc820e8c746e96697a5e8b201e4527aef2e0612b6eaa395ea93fe307ab8a5a",
  "args": [
    "0x5FbDB2315678afecb367f032d93F642f64180aa3",
    "0xcb1580becfbebb600331fa1f2d359c4cbd0e27d5e4b970c35e5351a749ff9824"
  ],
  "solcInputHash": "af6dadacf06c5b8f555c7ff398a0eb62",
  "bytecode": "0x60806040523480156200001157600080fd5b5060405162003ac938038062003ac9833981810160405281019062000037919062000271565b60405180602001604052806000815250604051806020016040528060008152506000620000696200018b60201b60201c565b9050806000806101000a81548173ffffffffffffffffffffffffffffffffffffffff021916908373ffffffffffffffffffffffffffffffffffffffff1602179055508073ffffffffffffffffffffffffffffffffffffffff16600073ffffffffffffffffffffffffffffffffffffffff167f8be0079c531659141344cd1fd0a4f28419497f9722a3daafe3b4186f6b6457e060405160405180910390a35081600190805190602001906200011f92919062000193565b5080600290805190602001906200013892919062000193565b50505081600760006101000a81548173ffffffffffffffffffffffffffffffffffffffff021916908373ffffffffffffffffffffffffffffffffffffffff1602179055508060088190555050506200039d565b600033905090565b828054620001a19062000304565b90600052602060002090601f016020900481019282620001c5576000855562000211565b82601f10620001e057805160ff191683800117855562000211565b8280016001018555821562000211579182015b8281111562000210578251825591602001919060010190620001f3565b5b50905062000220919062000224565b5090565b5b808211156200023f57600081600090555060010162000225565b5090565b600081519050620002548162000369565b92915050565b6000815190506200026b8162000383565b92915050565b600080604083850312156200028557600080fd5b600062000295858286016200025a565b9250506020620002a88582860162000243565b9150509250929050565b6000620002bf82620002e4565b9050919050565b6000819050919050565b6000620002dd82620002b2565b9050919050565b600073ffffffffffffffffffffffffffffffffffffffff82169050919050565b600060028204905060018216806200031d57607f821691505b602082108114156200033457620003336200033a565b5b50919050565b7f4e487b7100000000000000000000000000000000000000000000000000000000600052602260045260246000fd5b6200037481620002c6565b81146200038057600080fd5b50565b6200038e81620002d0565b81146200039a57600080fd5b50565b61371c80620003ad6000396000f3fe608060405234801561001057600080fd5b506004361061018e5760003560e01c80638da5cb5b116100de578063c87b56dd11610097578063ddf7fcb011610071578063ddf7fcb01461047d578063e985e9c51461049b578063f2fde38b146104cb578063f6a74ed7146104e75761018e565b8063c87b56dd14610401578063da8c229e14610431578063dbbdf083146104615761018e565b80638da5cb5b1461034157806395d89b411461035f57806396e494e81461037d578063a22cb465146103ad578063a7fc7a07146103c9578063b88d4fde146103e55761018e565b80633f15457f1161014b57806352dc67161161012557806352dc6716146102bb5780636352211e146102d757806370a0823114610307578063715018a6146103375761018e565b80633f15457f1461026557806342842e0e146102835780634e543b261461029f5761018e565b806301ffc9a71461019357806306fdde03146101c3578063081812fc146101e1578063095ea7b31461021157806323b872dd1461022d57806328ed4f6c14610249575b600080fd5b6101ad60048036038101906101a891906126eb565b610503565b6040516101ba9190612b4b565b60405180910390f35b6101cb61074d565b6040516101d89190612bfc565b60405180910390f35b6101fb60048036038101906101f6919061273d565b6107df565b6040516102089190612ae4565b60405180910390f35b61022b60048036038101906102269190612686565b610864565b005b61024760048036038101906102429190612580565b61097c565b005b610263600480360381019061025e9190612766565b6109dc565b005b61026d610b8e565b60405161027a9190612be1565b60405180910390f35b61029d60048036038101906102989190612580565b610bb4565b005b6102b960048036038101906102b491906124f2565b610bd4565b005b6102d560048036038101906102d09190612766565b610ce4565b005b6102f160048036038101906102ec919061273d565b610cf4565b6040516102fe9190612ae4565b60405180910390f35b610321600480360381019061031c91906124f2565b610da6565b60405161032e9190612e1e565b60405180910390f35b61033f610e5e565b005b610349610f98565b6040516103569190612ae4565b60405180910390f35b610367610fc1565b6040516103749190612bfc565b60405180910390f35b6103976004803603810190610392919061273d565b611053565b6040516103a49190612b4b565b60405180910390f35b6103c760048036038101906103c2919061264a565b611066565b005b6103e360048036038101906103de91906124f2565b6111e7565b005b6103ff60048036038101906103fa91906125cf565b611301565b005b61041b6004803603810190610416919061273d565b611363565b6040516104289190612bfc565b60405180910390f35b61044b600480360381019061044691906124f2565b61140a565b6040516104589190612b4b565b60405180910390f35b61047b60048036038101906104769190612766565b61142a565b005b61048561143a565b6040516104929190612b66565b60405180910390f35b6104b560048036038101906104b09190612544565b611440565b6040516104c29190612b4b565b60405180910390f35b6104e560048036038101906104e091906124f2565b6114d4565b005b61050160048036038101906104fc91906124f2565b61167d565b005b60007f01ffc9a7a5cef8baa21ed3c5c0d7e23accb804b619e9333b597f47a0d84076e27bffffffffffffffffffffffffffffffffffffffffffffffffffffffff1916827bffffffffffffffffffffffffffffffffffffffffffffffffffffffff191614806106de57507fb88d4fde60196325a28bb7f99a2582e0b46de55b18761e960c14ad7a320994657f42842e0eb38857a7775b4e7364b2775df7325074d088e7fb39590cd6281184ed7f23b872dd7302113369cda2901243429419bec145408fa8b352b3dd92b66c680b7fe985e9c5c6636c6879256001057b28ccac7718ef0ac56553ff9b926452cab8a37fa22cb4651ab9570f89bb516380c40ce76762284fb1f21337ceaf6adab99e7d4a7f081812fc55e34fdc7cf5d8b5cf4e3621fa6423fde952ec6ab24afdc0d85c0b2e7f095ea7b334ae44009aa867bfb386f5c3b4b443ac6f0ee573fa91c4608fbadfba7f6352211e6566aa027e75ac9dbf2423197fbd9b82b9d981a3ab367d355866aa1c7f70a08231b98ef4ca268c9cc3f6b4590e4bfec28280db06bb5d45e689f2a360be18181818181818187bffffffffffffffffffffffffffffffffffffffffffffffffffffffff1916827bffffffffffffffffffffffffffffffffffffffffffffffffffffffff1916145b8061074657507f28ed4f6c74b219a5819055dfbcd2f1837c046c364cf01fabb6799e4f440d6f137bffffffffffffffffffffffffffffffffffffffffffffffffffffffff1916827bffffffffffffffffffffffffffffffffffffffffffffffffffffffff1916145b9050919050565b60606001805461075c90613071565b80601f016020809104026020016040519081016040528092919081815260200182805461078890613071565b80156107d55780601f106107aa576101008083540402835291602001916107d5565b820191906000526020600020905b8154815290600101906020018083116107b857829003601f168201915b5050505050905090565b60006107ea82611797565b610829576040517f08c379a000000000000000000000000000000000000000000000000000000000815260040161082090612d5e565b60405180910390fd5b6005600083815260200190815260200160002060009054906101000a900473ffffffffffffffffffffffffffffffffffffffff169050919050565b600061086f82610cf4565b90508073ffffffffffffffffffffffffffffffffffffffff168373ffffffffffffffffffffffffffffffffffffffff1614156108e0576040517f08c379a00000000000000000000000000000000000000000000000000000000081526004016108d790612dde565b60405180910390fd5b8073ffffffffffffffffffffffffffffffffffffffff166108ff611803565b73ffffffffffffffffffffffffffffffffffffffff16148061092e575061092d81610928611803565b611440565b5b61096d576040517f08c379a000000000000000000000000000000000000000000000000000000000815260040161096490612cde565b60405180910390fd5b610977838361180b565b505050565b61098d610987611803565b826118c4565b6109cc576040517f08c379a00000000000000000000000000000000000000000000000000000000081526004016109c390612dfe565b60405180910390fd5b6109d78383836119a2565b505050565b3073ffffffffffffffffffffffffffffffffffffffff16600760009054906101000a900473ffffffffffffffffffffffffffffffffffffffff1673ffffffffffffffffffffffffffffffffffffffff166302571be36008546040518263ffffffff1660e01b8152600401610a509190612b66565b60206040518083038186803b158015610a6857600080fd5b505afa158015610a7c573d6000803e3d6000fd5b505050506040513d601f19601f82011682018060405250810190610aa0919061251b565b73ffffffffffffffffffffffffffffffffffffffff1614610ac057600080fd5b610aca33836118c4565b610ad357600080fd5b600760009054906101000a900473ffffffffffffffffffffffffffffffffffffffff1673ffffffffffffffffffffffffffffffffffffffff166306ab59236008548460001b846040518463ffffffff1660e01b8152600401610b3793929190612baa565b602060405180830381600087803b158015610b5157600080fd5b505af1158015610b65573d6000803e3d6000fd5b505050506040513d601f19601f82011682018060405250810190610b8991906126c2565b505050565b600760009054906101000a900473ffffffffffffffffffffffffffffffffffffffff1681565b610bcf83838360405180602001604052806000815250611301565b505050565b610bdc611803565b73ffffffffffffffffffffffffffffffffffffffff16610bfa610f98565b73ffffffffffffffffffffffffffffffffffffffff1614610c50576040517f08c379a0000000000000000000000000000000000000000000000000000000008152600401610c4790612d7e565b60405180910390fd5b600760009054906101000a900473ffffffffffffffffffffffffffffffffffffffff1673ffffffffffffffffffffffffffffffffffffffff16631896f70a600854836040518363ffffffff1660e01b8152600401610caf929190612b81565b600060405180830381600087803b158015610cc957600080fd5b505af1158015610cdd573d6000803e3d6000fd5b5050505050565b610cf082826000611bfe565b5050565b6000806003600084815260200190815260200160002060009054906101000a900473ffffffffffffffffffffffffffffffffffffffff169050600073ffffffffffffffffffffffffffffffffffffffff168173ffffffffffffffffffffffffffffffffffffffff161415610d9d576040517f08c379a0000000000000000000000000000000000000000000000000000000008152600401610d9490612d1e565b60405180910390fd5b80915050919050565b60008073ffffffffffffffffffffffffffffffffffffffff168273ffffffffffffffffffffffffffffffffffffffff161415610e17576040517f08c379a0000000000000000000000000000000000000000000000000000000008152600401610e0e90612cfe565b60405180910390fd5b600460008373ffffffffffffffffffffffffffffffffffffffff1673ffffffffffffffffffffffffffffffffffffffff168152602001908152602001600020549050919050565b610e66611803565b73ffffffffffffffffffffffffffffffffffffffff16610e84610f98565b73ffffffffffffffffffffffffffffffffffffffff1614610eda576040517f08c379a0000000000000000000000000000000000000000000000000000000008152600401610ed190612d7e565b60405180910390fd5b600073ffffffffffffffffffffffffffffffffffffffff1660008054906101000a900473ffffffffffffffffffffffffffffffffffffffff1673ffffffffffffffffffffffffffffffffffffffff167f8be0079c531659141344cd1fd0a4f28419497f9722a3daafe3b4186f6b6457e060405160405180910390a360008060006101000a81548173ffffffffffffffffffffffffffffffffffffffff021916908373ffffffffffffffffffffffffffffffffffffffff160217905550565b60008060009054906101000a900473ffffffffffffffffffffffffffffffffffffffff16905090565b606060028054610fd090613071565b80601f0160208091040260200160405190810160405280929190818152602001828054610ffc90613071565b80156110495780601f1061101e57610100808354040283529160200191611049565b820191906000526020600020905b81548152906001019060200180831161102c57829003601f168201915b5050505050905090565b600061105e82611797565b159050919050565b61106e611803565b73ffffffffffffffffffffffffffffffffffffffff168273ffffffffffffffffffffffffffffffffffffffff1614156110dc576040517f08c379a00000000000000000000000000000000000000000000000000000000081526004016110d390612c9e565b60405180910390fd5b80600660006110e9611803565b73ffffffffffffffffffffffffffffffffffffffff1673ffffffffffffffffffffffffffffffffffffffff16815260200190815260200160002060008473ffffffffffffffffffffffffffffffffffffffff1673ffffffffffffffffffffffffffffffffffffffff16815260200190815260200160002060006101000a81548160ff0219169083151502179055508173ffffffffffffffffffffffffffffffffffffffff16611196611803565b73ffffffffffffffffffffffffffffffffffffffff167f17307eab39ab6107e8899845ad3d59bd9653f200f220920489ca2b5937696c31836040516111db9190612b4b565b60405180910390a35050565b6111ef611803565b73ffffffffffffffffffffffffffffffffffffffff1661120d610f98565b73ffffffffffffffffffffffffffffffffffffffff1614611263576040517f08c379a000000000000000000000000000000000000000000000000000000000815260040161125a90612d7e565b60405180910390fd5b6001600960008373ffffffffffffffffffffffffffffffffffffffff1673ffffffffffffffffffffffffffffffffffffffff16815260200190815260200160002060006101000a81548160ff0219169083151502179055508073ffffffffffffffffffffffffffffffffffffffff167f0a8bb31534c0ed46f380cb867bd5c803a189ced9a764e30b3a4991a9901d747460405160405180910390a250565b61131261130c611803565b836118c4565b611351576040517f08c379a000000000000000000000000000000000000000000000000000000000815260040161134890612dfe565b60405180910390fd5b61135d84848484611e5a565b50505050565b606061136e82611797565b6113ad576040517f08c379a00000000000000000000000000000000000000000000000000000000081526004016113a490612dbe565b60405180910390fd5b60006113b7611eb6565b905060008151116113d75760405180602001604052806000815250611402565b806113e184611ecd565b6040516020016113f2929190612ac0565b6040516020818303038152906040525b915050919050565b60096020528060005260406000206000915054906101000a900460ff1681565b61143682826001611bfe565b5050565b60085481565b6000600660008473ffffffffffffffffffffffffffffffffffffffff1673ffffffffffffffffffffffffffffffffffffffff16815260200190815260200160002060008373ffffffffffffffffffffffffffffffffffffffff1673ffffffffffffffffffffffffffffffffffffffff16815260200190815260200160002060009054906101000a900460ff16905092915050565b6114dc611803565b73ffffffffffffffffffffffffffffffffffffffff166114fa610f98565b73ffffffffffffffffffffffffffffffffffffffff1614611550576040517f08c379a000000000000000000000000000000000000000000000000000000000815260040161154790612d7e565b60405180910390fd5b600073ffffffffffffffffffffffffffffffffffffffff168173ffffffffffffffffffffffffffffffffffffffff1614156115c0576040517f08c379a00000000000000000000000000000000000000000000000000000000081526004016115b790612c3e565b60405180910390fd5b8073ffffffffffffffffffffffffffffffffffffffff1660008054906101000a900473ffffffffffffffffffffffffffffffffffffffff1673ffffffffffffffffffffffffffffffffffffffff167f8be0079c531659141344cd1fd0a4f28419497f9722a3daafe3b4186f6b6457e060405160405180910390a3806000806101000a81548173ffffffffffffffffffffffffffffffffffffffff021916908373ffffffffffffffffffffffffffffffffffffffff16021790555050565b611685611803565b73ffffffffffffffffffffffffffffffffffffffff166116a3610f98565b73ffffffffffffffffffffffffffffffffffffffff16146116f9576040517f08c379a00000000000000000000000000000000000000000000000000000000081526004016116f090612d7e565b60405180910390fd5b6000600960008373ffffffffffffffffffffffffffffffffffffffff1673ffffffffffffffffffffffffffffffffffffffff16815260200190815260200160002060006101000a81548160ff0219169083151502179055508073ffffffffffffffffffffffffffffffffffffffff167f33d83959be2573f5453b12eb9d43b3499bc57d96bd2f067ba44803c859e8111360405160405180910390a250565b60008073ffffffffffffffffffffffffffffffffffffffff166003600084815260200190815260200160002060009054906101000a900473ffffffffffffffffffffffffffffffffffffffff1673ffffffffffffffffffffffffffffffffffffffff1614159050919050565b600033905090565b816005600083815260200190815260200160002060006101000a81548173ffffffffffffffffffffffffffffffffffffffff021916908373ffffffffffffffffffffffffffffffffffffffff160217905550808273ffffffffffffffffffffffffffffffffffffffff1661187e83610cf4565b73ffffffffffffffffffffffffffffffffffffffff167f8c5be1e5ebec7d5bd14f71427d1e84f3dd0314c0f7b2291e5b200ac8c7c3b92560405160405180910390a45050565b60006118cf82611797565b61190e576040517f08c379a000000000000000000000000000000000000000000000000000000000815260040161190590612cbe565b60405180910390fd5b600061191983610cf4565b90508073ffffffffffffffffffffffffffffffffffffffff168473ffffffffffffffffffffffffffffffffffffffff16148061198857508373ffffffffffffffffffffffffffffffffffffffff16611970846107df565b73ffffffffffffffffffffffffffffffffffffffff16145b8061199957506119988185611440565b5b91505092915050565b8273ffffffffffffffffffffffffffffffffffffffff166119c282610cf4565b73ffffffffffffffffffffffffffffffffffffffff1614611a18576040517f08c379a0000000000000000000000000000000000000000000000000000000008152600401611a0f90612d9e565b60405180910390fd5b600073ffffffffffffffffffffffffffffffffffffffff168273ffffffffffffffffffffffffffffffffffffffff161415611a88576040517f08c379a0000000000000000000000000000000000000000000000000000000008152600401611a7f90612c7e565b60405180910390fd5b611a9383838361207a565b611a9e60008261180b565b6001600460008573ffffffffffffffffffffffffffffffffffffffff1673ffffffffffffffffffffffffffffffffffffffff1681526020019081526020016000206000828254611aee9190612f59565b925050819055506001600460008473ffffffffffffffffffffffffffffffffffffffff1673ffffffffffffffffffffffffffffffffffffffff1681526020019081526020016000206000828254611b459190612ed2565b92505081905550816003600083815260200190815260200160002060006101000a81548173ffffffffffffffffffffffffffffffffffffffff021916908373ffffffffffffffffffffffffffffffffffffffff160217905550808273ffffffffffffffffffffffffffffffffffffffff168473ffffffffffffffffffffffffffffffffffffffff167fddf252ad1be2c89b69c2b068fc378daa952ba7f163c4a11628f55a4df523b3ef60405160405180910390a4505050565b3073ffffffffffffffffffffffffffffffffffffffff16600760009054906101000a900473ffffffffffffffffffffffffffffffffffffffff1673ffffffffffffffffffffffffffffffffffffffff166302571be36008546040518263ffffffff1660e01b8152600401611c729190612b66565b60206040518083038186803b158015611c8a57600080fd5b505afa158015611c9e573d6000803e3d6000fd5b505050506040513d601f19601f82011682018060405250810190611cc2919061251b565b73ffffffffffffffffffffffffffffffffffffffff1614611ce257600080fd5b600960003373ffffffffffffffffffffffffffffffffffffffff1673ffffffffffffffffffffffffffffffffffffffff16815260200190815260200160002060009054906101000a900460ff16611d3857600080fd5b611d4183611053565b611d4a57600080fd5b611d54828461207f565b8015611e1257600760009054906101000a900473ffffffffffffffffffffffffffffffffffffffff1673ffffffffffffffffffffffffffffffffffffffff166306ab59236008548560001b856040518463ffffffff1660e01b8152600401611dbe93929190612baa565b602060405180830381600087803b158015611dd857600080fd5b505af1158015611dec573d6000803e3d6000fd5b505050506040513d601f19601f82011682018060405250810190611e1091906126c2565b505b8173ffffffffffffffffffffffffffffffffffffffff16837e834ad8d7a1d8421d149549c7292d11385f5a042a008771d26ffd2d76db6e7460405160405180910390a3505050565b611e658484846119a2565b611e718484848461224d565b611eb0576040517f08c379a0000000000000000000000000000000000000000000000000000000008152600401611ea790612c1e565b60405180910390fd5b50505050565b606060405180602001604052806000815250905090565b60606000821415611f15576040518060400160405280600181526020017f30000000000000000000000000000000000000000000000000000000000000008152509050612075565b600082905060005b60008214611f47578080611f30906130d4565b915050600a82611f409190612f28565b9150611f1d565b60008167ffffffffffffffff811115611f89577f4e487b7100000000000000000000000000000000000000000000000000000000600052604160045260246000fd5b6040519080825280601f01601f191660200182016040528015611fbb5781602001600182028036833780820191505090505b5090505b6000851461206e57600182611fd49190612f59565b9150600a85611fe3919061311d565b6030611fef9190612ed2565b60f81b81838151811061202b577f4e487b7100000000000000000000000000000000000000000000000000000000600052603260045260246000fd5b60200101907effffffffffffffffffffffffffffffffffffffffffffffffffffffffffffff1916908160001a905350600a856120679190612f28565b9450611fbf565b8093505050505b919050565b505050565b600073ffffffffffffffffffffffffffffffffffffffff168273ffffffffffffffffffffffffffffffffffffffff1614156120ef576040517f08c379a00000000000000000000000000000000000000000000000000000000081526004016120e690612d3e565b60405180910390fd5b6120f881611797565b15612138576040517f08c379a000000000000000000000000000000000000000000000000000000000815260040161212f90612c5e565b60405180910390fd5b6121446000838361207a565b6001600460008473ffffffffffffffffffffffffffffffffffffffff1673ffffffffffffffffffffffffffffffffffffffff16815260200190815260200160002060008282546121949190612ed2565b92505081905550816003600083815260200190815260200160002060006101000a81548173ffffffffffffffffffffffffffffffffffffffff021916908373ffffffffffffffffffffffffffffffffffffffff160217905550808273ffffffffffffffffffffffffffffffffffffffff16600073ffffffffffffffffffffffffffffffffffffffff167fddf252ad1be2c89b69c2b068fc378daa952ba7f163c4a11628f55a4df523b3ef60405160405180910390a45050565b600061226e8473ffffffffffffffffffffffffffffffffffffffff166123e4565b156123d7578373ffffffffffffffffffffffffffffffffffffffff1663150b7a02612297611803565b8786866040518563ffffffff1660e01b81526004016122b99493929190612aff565b602060405180830381600087803b1580156122d357600080fd5b505af192505050801561230457506040513d601f19601f820116820180604052508101906123019190612714565b60015b612387573d8060008114612334576040519150601f19603f3d011682016040523d82523d6000602084013e612339565b606091505b5060008151141561237f576040517f08c379a000000000000000000000000000000000000000000000000000000000815260040161237690612c1e565b60405180910390fd5b805181602001fd5b63150b7a0260e01b7bffffffffffffffffffffffffffffffffffffffffffffffffffffffff1916817bffffffffffffffffffffffffffffffffffffffffffffffffffffffff1916149150506123dc565b600190505b949350505050565b600080823b905060008111915050919050565b600061240a61240584612e5e565b612e39565b90508281526020810184848401111561242257600080fd5b61242d84828561302f565b509392505050565b60008135905061244481613673565b92915050565b60008151905061245981613673565b92915050565b60008135905061246e8161368a565b92915050565b600081519050612483816136a1565b92915050565b600081359050612498816136b8565b92915050565b6000815190506124ad816136b8565b92915050565b600082601f8301126124c457600080fd5b81356124d48482602086016123f7565b91505092915050565b6000813590506124ec816136cf565b92915050565b60006020828403121561250457600080fd5b600061251284828501612435565b91505092915050565b60006020828403121561252d57600080fd5b600061253b8482850161244a565b91505092915050565b6000806040838503121561255757600080fd5b600061256585828601612435565b925050602061257685828601612435565b9150509250929050565b60008060006060848603121561259557600080fd5b60006125a386828701612435565b93505060206125b486828701612435565b92505060406125c5868287016124dd565b9150509250925092565b600080600080608085870312156125e557600080fd5b60006125f387828801612435565b945050602061260487828801612435565b9350506040612615878288016124dd565b925050606085013567ffffffffffffffff81111561263257600080fd5b61263e878288016124b3565b91505092959194509250565b6000806040838503121561265d57600080fd5b600061266b85828601612435565b925050602061267c8582860161245f565b9150509250929050565b6000806040838503121561269957600080fd5b60006126a785828601612435565b92505060206126b8858286016124dd565b9150509250929050565b6000602082840312156126d457600080fd5b60006126e284828501612474565b91505092915050565b6000602082840312156126fd57600080fd5b600061270b84828501612489565b91505092915050565b60006020828403121561272657600080fd5b60006127348482850161249e565b91505092915050565b60006020828403121561274f57600080fd5b600061275d848285016124dd565b91505092915050565b6000806040838503121561277957600080fd5b6000612787858286016124dd565b925050602061279885828601612435565b9150509250929050565b6127ab81612f8d565b82525050565b6127ba81612f9f565b82525050565b6127c981612fab565b82525050565b60006127da82612e8f565b6127e48185612ea5565b93506127f481856020860161303e565b6127fd8161320a565b840191505092915050565b6128118161300b565b82525050565b600061282282612e9a565b61282c8185612eb6565b935061283c81856020860161303e565b6128458161320a565b840191505092915050565b600061285b82612e9a565b6128658185612ec7565b935061287581856020860161303e565b80840191505092915050565b600061288e603283612eb6565b91506128998261321b565b604082019050919050565b60006128b1602683612eb6565b91506128bc8261326a565b604082019050919050565b60006128d4601c83612eb6565b91506128df826132b9565b602082019050919050565b60006128f7602483612eb6565b9150612902826132e2565b604082019050919050565b600061291a601983612eb6565b915061292582613331565b602082019050919050565b600061293d602c83612eb6565b91506129488261335a565b604082019050919050565b6000612960603883612eb6565b915061296b826133a9565b604082019050919050565b6000612983602a83612eb6565b915061298e826133f8565b604082019050919050565b60006129a6602983612eb6565b91506129b182613447565b604082019050919050565b60006129c9602083612eb6565b91506129d482613496565b602082019050919050565b60006129ec602c83612eb6565b91506129f7826134bf565b604082019050919050565b6000612a0f602083612eb6565b9150612a1a8261350e565b602082019050919050565b6000612a32602983612eb6565b9150612a3d82613537565b604082019050919050565b6000612a55602f83612eb6565b9150612a6082613586565b604082019050919050565b6000612a78602183612eb6565b9150612a83826135d5565b604082019050919050565b6000612a9b603183612eb6565b9150612aa682613624565b604082019050919050565b612aba81613001565b82525050565b6000612acc8285612850565b9150612ad88284612850565b91508190509392505050565b6000602082019050612af960008301846127a2565b92915050565b6000608082019050612b1460008301876127a2565b612b2160208301866127a2565b612b2e6040830185612ab1565b8181036060830152612b4081846127cf565b905095945050505050565b6000602082019050612b6060008301846127b1565b92915050565b6000602082019050612b7b60008301846127c0565b92915050565b6000604082019050612b9660008301856127c0565b612ba360208301846127a2565b9392505050565b6000606082019050612bbf60008301866127c0565b612bcc60208301856127c0565b612bd960408301846127a2565b949350505050565b6000602082019050612bf66000830184612808565b92915050565b60006020820190508181036000830152612c168184612817565b905092915050565b60006020820190508181036000830152612c3781612881565b9050919050565b60006020820190508181036000830152612c57816128a4565b9050919050565b60006020820190508181036000830152612c77816128c7565b9050919050565b60006020820190508181036000830152612c97816128ea565b9050919050565b60006020820190508181036000830152612cb78161290d565b9050919050565b60006020820190508181036000830152612cd781612930565b9050919050565b60006020820190508181036000830152612cf781612953565b9050919050565b60006020820190508181036000830152612d1781612976565b9050919050565b60006020820190508181036000830152612d3781612999565b9050919050565b60006020820190508181036000830152612d57816129bc565b9050919050565b60006020820190508181036000830152612d77816129df565b9050919050565b60006020820190508181036000830152612d9781612a02565b9050919050565b60006020820190508181036000830152612db781612a25565b9050919050565b60006020820190508181036000830152612dd781612a48565b9050919050565b60006020820190508181036000830152612df781612a6b565b9050919050565b60006020820190508181036000830152612e1781612a8e565b9050919050565b6000602082019050612e336000830184612ab1565b92915050565b6000612e43612e54565b9050612e4f82826130a3565b919050565b6000604051905090565b600067ffffffffffffffff821115612e7957612e786131db565b5b612e828261320a565b9050602081019050919050565b600081519050919050565b600081519050919050565b600082825260208201905092915050565b600082825260208201905092915050565b600081905092915050565b6000612edd82613001565b9150612ee883613001565b9250827fffffffffffffffffffffffffffffffffffffffffffffffffffffffffffffffff03821115612f1d57612f1c61314e565b5b828201905092915050565b6000612f3382613001565b9150612f3e83613001565b925082612f4e57612f4d61317d565b5b828204905092915050565b6000612f6482613001565b9150612f6f83613001565b925082821015612f8257612f8161314e565b5b828203905092915050565b6000612f9882612fe1565b9050919050565b60008115159050919050565b6000819050919050565b60007fffffffff0000000000000000000000000000000000000000000000000000000082169050919050565b600073ffffffffffffffffffffffffffffffffffffffff82169050919050565b6000819050919050565b60006130168261301d565b9050919050565b600061302882612fe1565b9050919050565b82818337600083830152505050565b60005b8381101561305c578082015181840152602081019050613041565b8381111561306b576000848401525b50505050565b6000600282049050600182168061308957607f821691505b6020821081141561309d5761309c6131ac565b5b50919050565b6130ac8261320a565b810181811067ffffffffffffffff821117156130cb576130ca6131db565b5b80604052505050565b60006130df82613001565b91507fffffffffffffffffffffffffffffffffffffffffffffffffffffffffffffffff8214156131125761311161314e565b5b600182019050919050565b600061312882613001565b915061313383613001565b9250826131435761314261317d565b5b828206905092915050565b7f4e487b7100000000000000000000000000000000000000000000000000000000600052601160045260246000fd5b7f4e487b7100000000000000000000000000000000000000000000000000000000600052601260045260246000fd5b7f4e487b7100000000000000000000000000000000000000000000000000000000600052602260045260246000fd5b7f4e487b7100000000000000000000000000000000000000000000000000000000600052604160045260246000fd5b6000601f19601f8301169050919050565b7f4552433732313a207472616e7366657220746f206e6f6e20455243373231526560008201527f63656976657220696d706c656d656e7465720000000000000000000000000000602082015250565b7f4f776e61626c653a206e6577206f776e657220697320746865207a65726f206160008201527f6464726573730000000000000000000000000000000000000000000000000000602082015250565b7f4552433732313a20746f6b656e20616c7265616479206d696e74656400000000600082015250565b7f4552433732313a207472616e7366657220746f20746865207a65726f2061646460008201527f7265737300000000000000000000000000000000000000000000000000000000602082015250565b7f4552433732313a20617070726f766520746f2063616c6c657200000000000000600082015250565b7f4552433732313a206f70657261746f7220717565727920666f72206e6f6e657860008201527f697374656e7420746f6b656e0000000000000000000000000000000000000000602082015250565b7f4552433732313a20617070726f76652063616c6c6572206973206e6f74206f7760008201527f6e6572206e6f7220617070726f76656420666f7220616c6c0000000000000000602082015250565b7f4552433732313a2062616c616e636520717565727920666f7220746865207a6560008201527f726f206164647265737300000000000000000000000000000000000000000000602082015250565b7f4552433732313a206f776e657220717565727920666f72206e6f6e657869737460008201527f656e7420746f6b656e0000000000000000000000000000000000000000000000602082015250565b7f4552433732313a206d696e7420746f20746865207a65726f2061646472657373600082015250565b7f4552433732313a20617070726f76656420717565727920666f72206e6f6e657860008201527f697374656e7420746f6b656e0000000000000000000000000000000000000000602082015250565b7f4f776e61626c653a2063616c6c6572206973206e6f7420746865206f776e6572600082015250565b7f4552433732313a207472616e73666572206f6620746f6b656e2074686174206960008201527f73206e6f74206f776e0000000000000000000000000000000000000000000000602082015250565b7f4552433732314d657461646174613a2055524920717565727920666f72206e6f60008201527f6e6578697374656e7420746f6b656e0000000000000000000000000000000000602082015250565b7f4552433732313a20617070726f76616c20746f2063757272656e74206f776e6560008201527f7200000000000000000000000000000000000000000000000000000000000000602082015250565b7f4552433732313a207472616e736665722063616c6c6572206973206e6f74206f60008201527f776e6572206e6f7220617070726f766564000000000000000000000000000000602082015250565b61367c81612f8d565b811461368757600080fd5b50565b61369381612f9f565b811461369e57600080fd5b50565b6136aa81612fab565b81146136b557600080fd5b50565b6136c181612fb5565b81146136cc57600080fd5b50565b6136d881613001565b81146136e357600080fd5b5056fea26469706673582212209e5a1a018e7ccbd56c88ef3ea1e245de5e0f4e2bd10d1303746bcd016458badc64736f6c63430008040033",
  "devdoc": {
    "kind": "dev",
    "methods": {
      "approve(address,uint256)": {
        "details": "See {IERC721-approve}."
      },
      "balanceOf(address)": {
        "details": "See {IERC721-balanceOf}."
      },
      "getApproved(uint256)": {
        "details": "See {IERC721-getApproved}."
      },
      "isApprovedForAll(address,address)": {
        "details": "See {IERC721-isApprovedForAll}."
      },
      "name()": {
        "details": "See {IERC721Metadata-name}."
      },
      "owner()": {
        "details": "Returns the address of the current owner."
      },
      "ownerOf(uint256)": {
        "details": "See {IERC721-ownerOf}."
      },
      "reclaim(uint256,address)": {
        "details": "Reclaim ownership of a name in ENS, if you own it in the registrar."
      },
      "register(uint256,address)": {
        "details": "Register a name.",
        "params": {
          "id": "The token ID (keccak256 of the label).",
          "owner": "The address that should own the registration."
        }
      },
      "registerOnly(uint256,address)": {
        "details": "Register a name, without modifying the registry.",
        "params": {
          "id": "The token ID (keccak256 of the label).",
          "owner": "The address that should own the registration."
        }
      },
      "renounceOwnership()": {
        "details": "Leaves the contract without owner. It will not be possible to call `onlyOwner` functions anymore. Can only be called by the current owner. NOTE: Renouncing ownership will leave the contract without an owner, thereby removing any functionality that is only available to the owner."
      },
      "safeTransferFrom(address,address,uint256)": {
        "details": "See {IERC721-safeTransferFrom}."
      },
      "safeTransferFrom(address,address,uint256,bytes)": {
        "details": "See {IERC721-safeTransferFrom}."
      },
      "setApprovalForAll(address,bool)": {
        "details": "See {IERC721-setApprovalForAll}."
      },
      "symbol()": {
        "details": "See {IERC721Metadata-symbol}."
      },
      "tokenURI(uint256)": {
        "details": "See {IERC721Metadata-tokenURI}."
      },
      "transferFrom(address,address,uint256)": {
        "details": "See {IERC721-transferFrom}."
      },
      "transferOwnership(address)": {
        "details": "Transfers ownership of the contract to a new account (`newOwner`). Can only be called by the current owner."
      }
    },
    "version": 1
  },
  "userdoc": {
    "kind": "user",
    "methods": {},
    "version": 1
  },
  "storageLayout": {
    "storage": [
      {
        "astId": 545,
        "contract": "contracts/ethregistrar/BaseRegistrarImplementation.sol:BaseRegistrarImplementation",
        "label": "_owner",
        "offset": 0,
        "slot": "0",
        "type": "t_address"
      },
      {
        "astId": 673,
        "contract": "contracts/ethregistrar/BaseRegistrarImplementation.sol:BaseRegistrarImplementation",
        "label": "_name",
        "offset": 0,
        "slot": "1",
        "type": "t_string_storage"
      },
      {
        "astId": 675,
        "contract": "contracts/ethregistrar/BaseRegistrarImplementation.sol:BaseRegistrarImplementation",
        "label": "_symbol",
        "offset": 0,
        "slot": "2",
        "type": "t_string_storage"
      },
      {
        "astId": 679,
        "contract": "contracts/ethregistrar/BaseRegistrarImplementation.sol:BaseRegistrarImplementation",
        "label": "_owners",
        "offset": 0,
        "slot": "3",
        "type": "t_mapping(t_uint256,t_address)"
      },
      {
        "astId": 683,
        "contract": "contracts/ethregistrar/BaseRegistrarImplementation.sol:BaseRegistrarImplementation",
        "label": "_balances",
        "offset": 0,
        "slot": "4",
        "type": "t_mapping(t_address,t_uint256)"
      },
      {
        "astId": 687,
        "contract": "contracts/ethregistrar/BaseRegistrarImplementation.sol:BaseRegistrarImplementation",
        "label": "_tokenApprovals",
        "offset": 0,
        "slot": "5",
        "type": "t_mapping(t_uint256,t_address)"
      },
      {
        "astId": 693,
        "contract": "contracts/ethregistrar/BaseRegistrarImplementation.sol:BaseRegistrarImplementation",
        "label": "_operatorApprovals",
        "offset": 0,
        "slot": "6",
        "type": "t_mapping(t_address,t_mapping(t_address,t_bool))"
      },
      {
        "astId": 9269,
        "contract": "contracts/ethregistrar/BaseRegistrarImplementation.sol:BaseRegistrarImplementation",
        "label": "ens",
        "offset": 0,
        "slot": "7",
        "type": "t_contract(ENS)11112"
      },
      {
        "astId": 9271,
        "contract": "contracts/ethregistrar/BaseRegistrarImplementation.sol:BaseRegistrarImplementation",
        "label": "baseNode",
        "offset": 0,
        "slot": "8",
        "type": "t_bytes32"
      },
      {
        "astId": 9275,
        "contract": "contracts/ethregistrar/BaseRegistrarImplementation.sol:BaseRegistrarImplementation",
        "label": "controllers",
        "offset": 0,
        "slot": "9",
        "type": "t_mapping(t_address,t_bool)"
      }
    ],
    "types": {
      "t_address": {
        "encoding": "inplace",
        "label": "address",
        "numberOfBytes": "20"
      },
      "t_bool": {
        "encoding": "inplace",
        "label": "bool",
        "numberOfBytes": "1"
      },
      "t_bytes32": {
        "encoding": "inplace",
        "label": "bytes32",
        "numberOfBytes": "32"
      },
      "t_contract(ENS)11112": {
        "encoding": "inplace",
        "label": "contract ENS",
        "numberOfBytes": "20"
      },
      "t_mapping(t_address,t_bool)": {
        "encoding": "mapping",
        "key": "t_address",
        "label": "mapping(address => bool)",
        "numberOfBytes": "32",
        "value": "t_bool"
      },
      "t_mapping(t_address,t_mapping(t_address,t_bool))": {
        "encoding": "mapping",
        "key": "t_address",
        "label": "mapping(address => mapping(address => bool))",
        "numberOfBytes": "32",
        "value": "t_mapping(t_address,t_bool)"
      },
      "t_mapping(t_address,t_uint256)": {
        "encoding": "mapping",
        "key": "t_address",
        "label": "mapping(address => uint256)",
        "numberOfBytes": "32",
        "value": "t_uint256"
      },
      "t_mapping(t_uint256,t_address)": {
        "encoding": "mapping",
        "key": "t_uint256",
        "label": "mapping(uint256 => address)",
        "numberOfBytes": "32",
        "value": "t_address"
      },
      "t_string_storage": {
        "encoding": "bytes",
        "label": "string",
        "numberOfBytes": "32"
      },
      "t_uint256": {
        "encoding": "inplace",
        "label": "uint256",
        "numberOfBytes": "32"
      }
    }
  }
}