{
  "address": "0x24bf911ebF9cc5Ce5d65041b9343D7c5F9565509",
  "abi": [
    {
      "inputs": [
        {
          "internalType": "contract BaseRegistrarImplementation",
          "name": "_base",
          "type": "address"
        },
        {
          "internalType": "contract PriceOracle",
          "name": "_prices",
          "type": "address"
        },
        {
          "internalType": "uint256",
          "name": "_minCommitmentAge",
          "type": "uint256"
        },
        {
          "internalType": "uint256",
          "name": "_maxCommitmentAge",
          "type": "uint256"
        }
      ],
      "stateMutability": "nonpayable",
      "type": "constructor"
    },
    {
      "anonymous": false,
      "inputs": [
        {
          "indexed": false,
          "internalType": "string",
          "name": "name",
          "type": "string"
        },
        {
          "indexed": true,
          "internalType": "bytes32",
          "name": "label",
          "type": "bytes32"
        },
        {
          "indexed": true,
          "internalType": "address",
          "name": "owner",
          "type": "address"
        },
        {
          "indexed": false,
          "internalType": "uint256",
          "name": "cost",
          "type": "uint256"
        }
      ],
      "name": "NameRegistered",
      "type": "event"
    },
    {
      "anonymous": false,
      "inputs": [
        {
          "indexed": true,
          "internalType": "address",
          "name": "oracle",
          "type": "address"
        }
      ],
      "name": "NewPriceOracle",
      "type": "event"
    },
    {
      "anonymous": false,
      "inputs": [
        {
          "indexed": true,
          "internalType": "address",
          "name": "previousOwner",
          "type": "address"
        },
        {
          "indexed": true,
          "internalType": "address",
          "name": "newOwner",
          "type": "address"
        }
      ],
      "name": "OwnershipTransferred",
      "type": "event"
    },
    {
      "inputs": [
        {
          "internalType": "string",
          "name": "name",
          "type": "string"
        }
      ],
      "name": "available",
      "outputs": [
        {
          "internalType": "bool",
          "name": "",
          "type": "bool"
        }
      ],
      "stateMutability": "view",
      "type": "function"
    },
    {
      "inputs": [
        {
          "internalType": "bytes32",
          "name": "commitment",
          "type": "bytes32"
        }
      ],
      "name": "commit",
      "outputs": [],
      "stateMutability": "nonpayable",
      "type": "function"
    },
    {
      "inputs": [
        {
          "internalType": "bytes32",
          "name": "",
          "type": "bytes32"
        }
      ],
      "name": "commitments",
      "outputs": [
        {
          "internalType": "uint256",
          "name": "",
          "type": "uint256"
        }
      ],
      "stateMutability": "view",
      "type": "function"
    },
    {
      "inputs": [
        {
          "internalType": "string",
          "name": "name",
          "type": "string"
        },
        {
          "internalType": "address",
          "name": "owner",
          "type": "address"
        },
        {
          "internalType": "bytes32",
          "name": "secret",
          "type": "bytes32"
        }
      ],
      "name": "makeCommitment",
      "outputs": [
        {
          "internalType": "bytes32",
          "name": "",
          "type": "bytes32"
        }
      ],
      "stateMutability": "pure",
      "type": "function"
    },
    {
      "inputs": [
        {
          "internalType": "string",
          "name": "name",
          "type": "string"
        },
        {
          "internalType": "address",
          "name": "owner",
          "type": "address"
        },
        {
          "internalType": "bytes32",
          "name": "secret",
          "type": "bytes32"
        },
        {
          "internalType": "address",
          "name": "resolver",
          "type": "address"
        },
        {
          "internalType": "address",
          "name": "addr",
          "type": "address"
        }
      ],
      "name": "makeCommitmentWithConfig",
      "outputs": [
        {
          "internalType": "bytes32",
          "name": "",
          "type": "bytes32"
        }
      ],
      "stateMutability": "pure",
      "type": "function"
    },
    {
      "inputs": [],
      "name": "maxCommitmentAge",
      "outputs": [
        {
          "internalType": "uint256",
          "name": "",
          "type": "uint256"
        }
      ],
      "stateMutability": "view",
      "type": "function"
    },
    {
      "inputs": [],
      "name": "minCommitmentAge",
      "outputs": [
        {
          "internalType": "uint256",
          "name": "",
          "type": "uint256"
        }
      ],
      "stateMutability": "view",
      "type": "function"
    },
    {
      "inputs": [],
      "name": "owner",
      "outputs": [
        {
          "internalType": "address",
          "name": "",
          "type": "address"
        }
      ],
      "stateMutability": "view",
      "type": "function"
    },
    {
      "inputs": [
        {
          "internalType": "string",
          "name": "name",
          "type": "string"
        }
      ],
      "name": "price",
      "outputs": [
        {
          "internalType": "uint256",
          "name": "",
          "type": "uint256"
        }
      ],
      "stateMutability": "view",
      "type": "function"
    },
    {
      "inputs": [
        {
          "internalType": "string",
          "name": "name",
          "type": "string"
        },
        {
          "internalType": "address",
          "name": "owner",
          "type": "address"
        },
        {
          "internalType": "bytes32",
          "name": "secret",
          "type": "bytes32"
        }
      ],
      "name": "register",
      "outputs": [],
      "stateMutability": "payable",
      "type": "function"
    },
    {
      "inputs": [
        {
          "internalType": "string",
          "name": "name",
          "type": "string"
        },
        {
          "internalType": "address",
          "name": "owner",
          "type": "address"
        },
        {
          "internalType": "bytes32",
          "name": "secret",
          "type": "bytes32"
        },
        {
          "internalType": "address",
          "name": "resolver",
          "type": "address"
        },
        {
          "internalType": "address",
          "name": "addr",
          "type": "address"
        }
      ],
      "name": "registerWithConfig",
      "outputs": [],
      "stateMutability": "payable",
      "type": "function"
    },
    {
      "inputs": [],
      "name": "renounceOwnership",
      "outputs": [],
      "stateMutability": "nonpayable",
      "type": "function"
    },
    {
      "inputs": [
        {
          "internalType": "uint256",
          "name": "_minCommitmentAge",
          "type": "uint256"
        },
        {
          "internalType": "uint256",
          "name": "_maxCommitmentAge",
          "type": "uint256"
        }
      ],
      "name": "setCommitmentAges",
      "outputs": [],
      "stateMutability": "nonpayable",
      "type": "function"
    },
    {
      "inputs": [
        {
          "internalType": "contract PriceOracle",
          "name": "_prices",
          "type": "address"
        }
      ],
      "name": "setPriceOracle",
      "outputs": [],
      "stateMutability": "nonpayable",
      "type": "function"
    },
    {
      "inputs": [
        {
          "internalType": "bytes4",
          "name": "interfaceID",
          "type": "bytes4"
        }
      ],
      "name": "supportsInterface",
      "outputs": [
        {
          "internalType": "bool",
          "name": "",
          "type": "bool"
        }
      ],
      "stateMutability": "pure",
      "type": "function"
    },
    {
      "inputs": [
        {
          "internalType": "address",
          "name": "newOwner",
          "type": "address"
        }
      ],
      "name": "transferOwnership",
      "outputs": [],
      "stateMutability": "nonpayable",
      "type": "function"
    },
    {
      "inputs": [
        {
          "internalType": "string",
          "name": "name",
          "type": "string"
        }
      ],
      "name": "valid",
      "outputs": [
        {
          "internalType": "bool",
          "name": "",
          "type": "bool"
        }
      ],
      "stateMutability": "pure",
      "type": "function"
    },
    {
      "inputs": [],
      "name": "withdraw",
      "outputs": [],
      "stateMutability": "nonpayable",
      "type": "function"
    }
  ],
  "transactionHash": "0x84492cf0aadd9423e024cfc034ada2d3adbf3c8fe289cfc33dce9796f122a230",
  "args": [
    "0xCf7Ed3AccA5a467e9e704C703E8D87F634fB0Fc9",
    "0x5FC8d32690cc91D4c39d9d3abcBD16989F875707",
    60,
    86400
  ],
  "solcInputHash": "af6dadacf06c5b8f555c7ff398a0eb62",
  "bytecode": "0x60806040523480156200001157600080fd5b5060405162002716380380620027168339818101604052810190620000379190620001db565b6000620000496200018e60201b60201c565b9050806000806101000a81548173ffffffffffffffffffffffffffffffffffffffff021916908373ffffffffffffffffffffffffffffffffffffffff1602179055508073ffffffffffffffffffffffffffffffffffffffff16600073ffffffffffffffffffffffffffffffffffffffff167f8be0079c531659141344cd1fd0a4f28419497f9722a3daafe3b4186f6b6457e060405160405180910390a350818111620000f457600080fd5b83600160006101000a81548173ffffffffffffffffffffffffffffffffffffffff021916908373ffffffffffffffffffffffffffffffffffffffff16021790555082600260006101000a81548173ffffffffffffffffffffffffffffffffffffffff021916908373ffffffffffffffffffffffffffffffffffffffff160217905550816003819055508060048190555050505050620002fb565b600033905090565b600081519050620001a781620002ad565b92915050565b600081519050620001be81620002c7565b92915050565b600081519050620001d581620002e1565b92915050565b60008060008060808587031215620001f257600080fd5b6000620002028782880162000196565b94505060206200021587828801620001ad565b93505060406200022887828801620001c4565b92505060606200023b87828801620001c4565b91505092959194509250565b6000620002548262000283565b9050919050565b6000620002688262000247565b9050919050565b60006200027c8262000247565b9050919050565b600073ffffffffffffffffffffffffffffffffffffffff82169050919050565b6000819050919050565b620002b8816200025b565b8114620002c457600080fd5b50565b620002d2816200026f565b8114620002de57600080fd5b50565b620002ec81620002a3565b8114620002f857600080fd5b50565b61240b806200030b6000396000f3fe6080604052600436106101095760003560e01c80638da5cb5b11610095578063f14fcbc811610064578063f14fcbc81461035c578063f2fde38b14610385578063f34b95b3146103ae578063f49826be146103ca578063fe2c61981461040757610109565b80638da5cb5b1461028c5780639791c097146102b7578063aeb8ce9b146102f4578063ce1e09c01461033157610109565b80636acb4f91116100dc5780636acb4f91146101c8578063715018a6146101e45780637e324479146101fb578063839df945146102245780638d839ffe1461026157610109565b806301ffc9a71461010e5780633ccfd60b1461014b5780633d86c52f14610162578063530e784f1461019f575b600080fd5b34801561011a57600080fd5b50610135600480360381019061013091906119fd565b610444565b6040516101429190611e83565b60405180910390f35b34801561015757600080fd5b50610160610628565b005b34801561016e57600080fd5b5061018960048036038101906101849190611b8c565b6106ed565b6040516101969190611e9e565b60405180910390f35b3480156101ab57600080fd5b506101c660048036038101906101c19190611a4f565b610810565b005b6101e260048036038101906101dd9190611b8c565b610935565b005b3480156101f057600080fd5b506101f9610f4b565b005b34801561020757600080fd5b50610222600480360381019061021d9190611c44565b611085565b005b34801561023057600080fd5b5061024b600480360381019061024691906119ab565b611113565b6040516102589190611f74565b60405180910390f35b34801561026d57600080fd5b5061027661112b565b6040516102839190611f74565b60405180910390f35b34801561029857600080fd5b506102a1611131565b6040516102ae9190611e31565b60405180910390f35b3480156102c357600080fd5b506102de60048036038101906102d99190611ae4565b61115a565b6040516102eb9190611e83565b60405180910390f35b34801561030057600080fd5b5061031b60048036038101906103169190611ae4565b611170565b6040516103289190611e83565b60405180910390f35b34801561033d57600080fd5b50610346611244565b6040516103539190611f74565b60405180910390f35b34801561036857600080fd5b50610383600480360381019061037e91906119ab565b61124a565b005b34801561039157600080fd5b506103ac60048036038101906103a79190611959565b611291565b005b6103c860048036038101906103c39190611a78565b61143a565b005b3480156103d657600080fd5b506103f160048036038101906103ec9190611b25565b611492565b6040516103fe9190611e9e565b60405180910390f35b34801561041357600080fd5b5061042e60048036038101906104299190611ae4565b6114ab565b60405161043b9190611f74565b60405180910390f35b60007f01ffc9a7a5cef8baa21ed3c5c0d7e23accb804b619e9333b597f47a0d84076e27bffffffffffffffffffffffffffffffffffffffffffffffffffffffff1916827bffffffffffffffffffffffffffffffffffffffffffffffffffffffff1916148061059757507ff34b95b3ccb4c902ea244fa34aa19f86f7ea6c04d87ada0fa3d1437f04bbd1447ff14fcbc8f6996b31406143e2613e60bde3c1118cfe166c0aa27ba40ef1033df57ff49826be766d3cc8dc7e4aab3f18eb3d339eb3bce85a7b9144119bbe997b2cc37faeb8ce9b70d5d3f3fba501c34cd61a54703dbe3cfb25bd75d3574635f9ea76837ffe2c619874d0eefe2754e000f94bf8e8d25af34324c98305907f8d29c90ee618181818187bffffffffffffffffffffffffffffffffffffffffffffffffffffffff1916827bffffffffffffffffffffffffffffffffffffffffffffffffffffffff1916145b8061062157507f3d86c52f15403f1a062ec90b8fe0792e3be0a9cb236cd8ee4ec4b45821bd2faa7f6acb4f918674e987c0300e8b629769f4d160a3155e20d335a569b3815537c15d187bffffffffffffffffffffffffffffffffffffffffffffffffffffffff1916827bffffffffffffffffffffffffffffffffffffffffffffffffffffffff1916145b9050919050565b61063061155f565b73ffffffffffffffffffffffffffffffffffffffff1661064e611131565b73ffffffffffffffffffffffffffffffffffffffff16146106a4576040517f08c379a000000000000000000000000000000000000000000000000000000000815260040161069b90611f54565b60405180910390fd5b3373ffffffffffffffffffffffffffffffffffffffff166108fc479081150290604051600060405180830381858888f193505050501580156106ea573d6000803e3d6000fd5b50565b60008086805190602001209050600073ffffffffffffffffffffffffffffffffffffffff168473ffffffffffffffffffffffffffffffffffffffff161480156107625750600073ffffffffffffffffffffffffffffffffffffffff168373ffffffffffffffffffffffffffffffffffffffff16145b1561079a5780868660405160200161077c93929190611dc8565b60405160208183030381529060405280519060200120915050610807565b600073ffffffffffffffffffffffffffffffffffffffff168473ffffffffffffffffffffffffffffffffffffffff1614156107d457600080fd5b80868585886040516020016107ed959493929190611d69565b604051602081830303815290604052805190602001209150505b95945050505050565b61081861155f565b73ffffffffffffffffffffffffffffffffffffffff16610836611131565b73ffffffffffffffffffffffffffffffffffffffff161461088c576040517f08c379a000000000000000000000000000000000000000000000000000000000815260040161088390611f54565b60405180910390fd5b80600260006101000a81548173ffffffffffffffffffffffffffffffffffffffff021916908373ffffffffffffffffffffffffffffffffffffffff160217905550600260009054906101000a900473ffffffffffffffffffffffffffffffffffffffff1673ffffffffffffffffffffffffffffffffffffffff167ff261845a790fe29bbd6631e2ca4a5bdc83e6eed7c3271d9590d97287e00e912360405160405180910390a250565b600061094486868686866106ed565b905060006109528783611567565b905060008780519060200120905060008160001c9050600073ffffffffffffffffffffffffffffffffffffffff168673ffffffffffffffffffffffffffffffffffffffff1614610dcb57600160009054906101000a900473ffffffffffffffffffffffffffffffffffffffff1673ffffffffffffffffffffffffffffffffffffffff1663dbbdf08382306040518363ffffffff1660e01b81526004016109f9929190611f8f565b600060405180830381600087803b158015610a1357600080fd5b505af1158015610a27573d6000803e3d6000fd5b505050506000600160009054906101000a900473ffffffffffffffffffffffffffffffffffffffff1673ffffffffffffffffffffffffffffffffffffffff1663ddf7fcb06040518163ffffffff1660e01b815260040160206040518083038186803b158015610a9557600080fd5b505afa158015610aa9573d6000803e3d6000fd5b505050506040513d601f19601f82011682018060405250810190610acd91906119d4565b83604051602001610adf929190611e05565b604051602081830303815290604052805190602001209050600160009054906101000a900473ffffffffffffffffffffffffffffffffffffffff1673ffffffffffffffffffffffffffffffffffffffff16633f15457f6040518163ffffffff1660e01b815260040160206040518083038186803b158015610b5f57600080fd5b505afa158015610b73573d6000803e3d6000fd5b505050506040513d601f19601f82011682018060405250810190610b979190611a26565b73ffffffffffffffffffffffffffffffffffffffff16631896f70a82896040518363ffffffff1660e01b8152600401610bd1929190611eb9565b600060405180830381600087803b158015610beb57600080fd5b505af1158015610bff573d6000803e3d6000fd5b50505050600073ffffffffffffffffffffffffffffffffffffffff168673ffffffffffffffffffffffffffffffffffffffff1614610ca5578673ffffffffffffffffffffffffffffffffffffffff1663d5fa2b0082886040518363ffffffff1660e01b8152600401610c72929190611eb9565b600060405180830381600087803b158015610c8c57600080fd5b505af1158015610ca0573d6000803e3d6000fd5b505050505b600160009054906101000a900473ffffffffffffffffffffffffffffffffffffffff1673ffffffffffffffffffffffffffffffffffffffff166328ed4f6c838b6040518363ffffffff1660e01b8152600401610d02929190611f8f565b600060405180830381600087803b158015610d1c57600080fd5b505af1158015610d30573d6000803e3d6000fd5b50505050600160009054906101000a900473ffffffffffffffffffffffffffffffffffffffff1673ffffffffffffffffffffffffffffffffffffffff166323b872dd308b856040518463ffffffff1660e01b8152600401610d9393929190611e4c565b600060405180830381600087803b158015610dad57600080fd5b505af1158015610dc1573d6000803e3d6000fd5b5050505050610e94565b600073ffffffffffffffffffffffffffffffffffffffff168573ffffffffffffffffffffffffffffffffffffffff1614610e0457600080fd5b600160009054906101000a900473ffffffffffffffffffffffffffffffffffffffff1673ffffffffffffffffffffffffffffffffffffffff1663dbbdf083828a6040518363ffffffff1660e01b8152600401610e61929190611f8f565b600060405180830381600087803b158015610e7b57600080fd5b505af1158015610e8f573d6000803e3d6000fd5b505050505b8773ffffffffffffffffffffffffffffffffffffffff16827f0667086d08417333ce63f40d5bc2ef6fd330e25aaaf317b7c489541f8fe600fa8b86604051610edd929190611f04565b60405180910390a382341115610f40573373ffffffffffffffffffffffffffffffffffffffff166108fc8434610f139190612080565b9081150290604051600060405180830381858888f19350505050158015610f3e573d6000803e3d6000fd5b505b505050505050505050565b610f5361155f565b73ffffffffffffffffffffffffffffffffffffffff16610f71611131565b73ffffffffffffffffffffffffffffffffffffffff1614610fc7576040517f08c379a0000000000000000000000000000000000000000000000000000000008152600401610fbe90611f54565b60405180910390fd5b600073ffffffffffffffffffffffffffffffffffffffff1660008054906101000a900473ffffffffffffffffffffffffffffffffffffffff1673ffffffffffffffffffffffffffffffffffffffff167f8be0079c531659141344cd1fd0a4f28419497f9722a3daafe3b4186f6b6457e060405160405180910390a360008060006101000a81548173ffffffffffffffffffffffffffffffffffffffff021916908373ffffffffffffffffffffffffffffffffffffffff160217905550565b61108d61155f565b73ffffffffffffffffffffffffffffffffffffffff166110ab611131565b73ffffffffffffffffffffffffffffffffffffffff1614611101576040517f08c379a00000000000000000000000000000000000000000000000000000000081526004016110f890611f54565b60405180910390fd5b81600381905550806004819055505050565b60056020528060005260406000206000915090505481565b60035481565b60008060009054906101000a900473ffffffffffffffffffffffffffffffffffffffff16905090565b600060016111678361160f565b10159050919050565b600080828051906020012090506111868361115a565b801561123c5750600160009054906101000a900473ffffffffffffffffffffffffffffffffffffffff1673ffffffffffffffffffffffffffffffffffffffff166396e494e88260001c6040518263ffffffff1660e01b81526004016111eb9190611f74565b60206040518083038186803b15801561120357600080fd5b505afa158015611217573d6000803e3d6000fd5b505050506040513d601f19601f8201168201806040525081019061123b9190611982565b5b915050919050565b60045481565b42600454600560008481526020019081526020016000205461126c919061202a565b1061127657600080fd5b42600560008381526020019081526020016000208190555050565b61129961155f565b73ffffffffffffffffffffffffffffffffffffffff166112b7611131565b73ffffffffffffffffffffffffffffffffffffffff161461130d576040517f08c379a000000000000000000000000000000000000000000000000000000000815260040161130490611f54565b60405180910390fd5b600073ffffffffffffffffffffffffffffffffffffffff168173ffffffffffffffffffffffffffffffffffffffff16141561137d576040517f08c379a000000000000000000000000000000000000000000000000000000000815260040161137490611f34565b60405180910390fd5b8073ffffffffffffffffffffffffffffffffffffffff1660008054906101000a900473ffffffffffffffffffffffffffffffffffffffff1673ffffffffffffffffffffffffffffffffffffffff167f8be0079c531659141344cd1fd0a4f28419497f9722a3daafe3b4186f6b6457e060405160405180910390a3806000806101000a81548173ffffffffffffffffffffffffffffffffffffffff021916908373ffffffffffffffffffffffffffffffffffffffff16021790555050565b61148c84848080601f016020809104026020016040519081016040528093929190818152602001838380828437600081840152601f19601f820116905080830192505050505050508383600080610935565b50505050565b60006114a28484846000806106ed565b90509392505050565b6000600260009054906101000a900473ffffffffffffffffffffffffffffffffffffffff1673ffffffffffffffffffffffffffffffffffffffff1663fe2c6198836040518263ffffffff1660e01b81526004016115089190611ee2565b60206040518083038186803b15801561152057600080fd5b505afa158015611534573d6000803e3d6000fd5b505050506040513d601f19601f820116820180604052508101906115589190611c1b565b9050919050565b600033905090565b600042600354600560008581526020019081526020016000205461158b919061202a565b111561159657600080fd5b4260045460056000858152602001908152602001600020546115b8919061202a565b116115c257600080fd5b6115cb83611170565b6115d457600080fd5b600560008381526020019081526020016000206000905560006115f6846114ab565b90508034101561160557600080fd5b8091505092915050565b60008060008084519050600092505b808210156117df576000858381518110611661577f4e487b7100000000000000000000000000000000000000000000000000000000600052603260045260246000fd5b602001015160f81c60f81b9050608060f81b817effffffffffffffffffffffffffffffffffffffffffffffffffffffffffffff191610156116b0576001836116a9919061202a565b92506117cb565b60e060f81b817effffffffffffffffffffffffffffffffffffffffffffffffffffffffffffff191610156116f2576002836116eb919061202a565b92506117ca565b60f060f81b817effffffffffffffffffffffffffffffffffffffffffffffffffffffffffffff191610156117345760038361172d919061202a565b92506117c9565b60f8801b817effffffffffffffffffffffffffffffffffffffffffffffffffffffffffffff191610156117755760048361176e919061202a565b92506117c8565b60fc60f81b817effffffffffffffffffffffffffffffffffffffffffffffffffffffffffffff191610156117b7576005836117b0919061202a565b92506117c7565b6006836117c4919061202a565b92505b5b5b5b5b5082806117d7906121c9565b93505061161e565b829350505050919050565b60006117fd6117f884611fdd565b611fb8565b90508281526020810184848401111561181557600080fd5b611820848285612156565b509392505050565b60008135905061183781612334565b92915050565b60008151905061184c8161234b565b92915050565b60008135905061186181612362565b92915050565b60008151905061187681612362565b92915050565b60008135905061188b81612379565b92915050565b6000815190506118a081612390565b92915050565b6000813590506118b5816123a7565b92915050565b60008083601f8401126118cd57600080fd5b8235905067ffffffffffffffff8111156118e657600080fd5b6020830191508360018202830111156118fe57600080fd5b9250929050565b600082601f83011261191657600080fd5b81356119268482602086016117ea565b91505092915050565b60008135905061193e816123be565b92915050565b600081519050611953816123be565b92915050565b60006020828403121561196b57600080fd5b600061197984828501611828565b91505092915050565b60006020828403121561199457600080fd5b60006119a28482850161183d565b91505092915050565b6000602082840312156119bd57600080fd5b60006119cb84828501611852565b91505092915050565b6000602082840312156119e657600080fd5b60006119f484828501611867565b91505092915050565b600060208284031215611a0f57600080fd5b6000611a1d8482850161187c565b91505092915050565b600060208284031215611a3857600080fd5b6000611a4684828501611891565b91505092915050565b600060208284031215611a6157600080fd5b6000611a6f848285016118a6565b91505092915050565b60008060008060608587031215611a8e57600080fd5b600085013567ffffffffffffffff811115611aa857600080fd5b611ab4878288016118bb565b94509450506020611ac787828801611828565b9250506040611ad887828801611852565b91505092959194509250565b600060208284031215611af657600080fd5b600082013567ffffffffffffffff811115611b1057600080fd5b611b1c84828501611905565b91505092915050565b600080600060608486031215611b3a57600080fd5b600084013567ffffffffffffffff811115611b5457600080fd5b611b6086828701611905565b9350506020611b7186828701611828565b9250506040611b8286828701611852565b9150509250925092565b600080600080600060a08688031215611ba457600080fd5b600086013567ffffffffffffffff811115611bbe57600080fd5b611bca88828901611905565b9550506020611bdb88828901611828565b9450506040611bec88828901611852565b9350506060611bfd88828901611828565b9250506080611c0e88828901611828565b9150509295509295909350565b600060208284031215611c2d57600080fd5b6000611c3b84828501611944565b91505092915050565b60008060408385031215611c5757600080fd5b6000611c658582860161192f565b9250506020611c768582860161192f565b9150509250929050565b611c89816120b4565b82525050565b611ca0611c9b826120b4565b612212565b82525050565b611caf816120c6565b82525050565b611cbe816120d2565b82525050565b611cd5611cd0826120d2565b612224565b82525050565b6000611ce68261200e565b611cf08185612019565b9350611d00818560208601612165565b611d098161229e565b840191505092915050565b6000611d21602683612019565b9150611d2c826122bc565b604082019050919050565b6000611d44602083612019565b9150611d4f8261230b565b602082019050919050565b611d638161214c565b82525050565b6000611d758288611cc4565b602082019150611d858287611c8f565b601482019150611d958286611c8f565b601482019150611da58285611c8f565b601482019150611db58284611cc4565b6020820191508190509695505050505050565b6000611dd48286611cc4565b602082019150611de48285611c8f565b601482019150611df48284611cc4565b602082019150819050949350505050565b6000611e118285611cc4565b602082019150611e218284611cc4565b6020820191508190509392505050565b6000602082019050611e466000830184611c80565b92915050565b6000606082019050611e616000830186611c80565b611e6e6020830185611c80565b611e7b6040830184611d5a565b949350505050565b6000602082019050611e986000830184611ca6565b92915050565b6000602082019050611eb36000830184611cb5565b92915050565b6000604082019050611ece6000830185611cb5565b611edb6020830184611c80565b9392505050565b60006020820190508181036000830152611efc8184611cdb565b905092915050565b60006040820190508181036000830152611f1e8185611cdb565b9050611f2d6020830184611d5a565b9392505050565b60006020820190508181036000830152611f4d81611d14565b9050919050565b60006020820190508181036000830152611f6d81611d37565b9050919050565b6000602082019050611f896000830184611d5a565b92915050565b6000604082019050611fa46000830185611d5a565b611fb16020830184611c80565b9392505050565b6000611fc2611fd3565b9050611fce8282612198565b919050565b6000604051905090565b600067ffffffffffffffff821115611ff857611ff761226f565b5b6120018261229e565b9050602081019050919050565b600081519050919050565b600082825260208201905092915050565b60006120358261214c565b91506120408361214c565b9250827fffffffffffffffffffffffffffffffffffffffffffffffffffffffffffffffff0382111561207557612074612240565b5b828201905092915050565b600061208b8261214c565b91506120968361214c565b9250828210156120a9576120a8612240565b5b828203905092915050565b60006120bf8261212c565b9050919050565b60008115159050919050565b6000819050919050565b60007fffffffff0000000000000000000000000000000000000000000000000000000082169050919050565b6000612113826120b4565b9050919050565b6000612125826120b4565b9050919050565b600073ffffffffffffffffffffffffffffffffffffffff82169050919050565b6000819050919050565b82818337600083830152505050565b60005b83811015612183578082015181840152602081019050612168565b83811115612192576000848401525b50505050565b6121a18261229e565b810181811067ffffffffffffffff821117156121c0576121bf61226f565b5b80604052505050565b60006121d48261214c565b91507fffffffffffffffffffffffffffffffffffffffffffffffffffffffffffffffff82141561220757612206612240565b5b600182019050919050565b600061221d8261222e565b9050919050565b6000819050919050565b6000612239826122af565b9050919050565b7f4e487b7100000000000000000000000000000000000000000000000000000000600052601160045260246000fd5b7f4e487b7100000000000000000000000000000000000000000000000000000000600052604160045260246000fd5b6000601f19601f8301169050919050565b60008160601b9050919050565b7f4f776e61626c653a206e6577206f776e657220697320746865207a65726f206160008201527f6464726573730000000000000000000000000000000000000000000000000000602082015250565b7f4f776e61626c653a2063616c6c6572206973206e6f7420746865206f776e6572600082015250565b61233d816120b4565b811461234857600080fd5b50565b612354816120c6565b811461235f57600080fd5b50565b61236b816120d2565b811461237657600080fd5b50565b612382816120dc565b811461238d57600080fd5b50565b61239981612108565b81146123a457600080fd5b50565b6123b08161211a565b81146123bb57600080fd5b50565b6123c78161214c565b81146123d257600080fd5b5056fea26469706673582212202b18212b43edb5b3ec75dabbaa2ea68e6799dc5af62af9c147de2acab82ec36264736f6c63430008040033",
  "devdoc": {
    "details": "A registrar controller for registering names at fixed cost.",
    "kind": "dev",
    "methods": {
      "owner()": {
        "details": "Returns the address of the current owner."
      },
      "renounceOwnership()": {
        "details": "Leaves the contract without owner. It will not be possible to call `onlyOwner` functions anymore. Can only be called by the current owner. NOTE: Renouncing ownership will leave the contract without an owner, thereby removing any functionality that is only available to the owner."
      },
      "transferOwnership(address)": {
        "details": "Transfers ownership of the contract to a new account (`newOwner`). Can only be called by the current owner."
      }
    },
    "version": 1
  },
  "userdoc": {
    "kind": "user",
    "methods": {},
    "version": 1
  },
  "storageLayout": {
    "storage": [
      {
        "astId": 545,
        "contract": "contracts/ethregistrar/ETHRegistrarController.sol:ETHRegistrarController",
        "label": "_owner",
        "offset": 0,
        "slot": "0",
        "type": "t_address"
      },
      {
        "astId": 9717,
        "contract": "contracts/ethregistrar/ETHRegistrarController.sol:ETHRegistrarController",
        "label": "base",
        "offset": 0,
        "slot": "1",
        "type": "t_contract(BaseRegistrarImplementation)9625"
      },
      {
        "astId": 9720,
        "contract": "contracts/ethregistrar/ETHRegistrarController.sol:ETHRegistrarController",
        "label": "prices",
        "offset": 0,
        "slot": "2",
        "type": "t_contract(PriceOracle)10287"
      },
      {
        "astId": 9722,
        "contract": "contracts/ethregistrar/ETHRegistrarController.sol:ETHRegistrarController",
        "label": "minCommitmentAge",
        "offset": 0,
        "slot": "3",
        "type": "t_uint256"
      },
      {
        "astId": 9724,
        "contract": "contracts/ethregistrar/ETHRegistrarController.sol:ETHRegistrarController",
        "label": "maxCommitmentAge",
        "offset": 0,
        "slot": "4",
        "type": "t_uint256"
      },
      {
        "astId": 9728,
        "contract": "contracts/ethregistrar/ETHRegistrarController.sol:ETHRegistrarController",
        "label": "commitments",
        "offset": 0,
        "slot": "5",
        "type": "t_mapping(t_bytes32,t_uint256)"
      }
    ],
    "types": {
      "t_address": {
        "encoding": "inplace",
        "label": "address",
        "numberOfBytes": "20"
      },
      "t_bytes32": {
        "encoding": "inplace",
        "label": "bytes32",
        "numberOfBytes": "32"
      },
      "t_contract(BaseRegistrarImplementation)9625": {
        "encoding": "inplace",
        "label": "contract BaseRegistrarImplementation",
        "numberOfBytes": "20"
      },
      "t_contract(PriceOracle)10287": {
        "encoding": "inplace",
        "label": "contract PriceOracle",
        "numberOfBytes": "20"
      },
      "t_mapping(t_bytes32,t_uint256)": {
        "encoding": "mapping",
        "key": "t_bytes32",
        "label": "mapping(bytes32 => uint256)",
        "numberOfBytes": "32",
        "value": "t_uint256"
      },
      "t_uint256": {
        "encoding": "inplace",
        "label": "uint256",
        "numberOfBytes": "32"
      }
    }
  }
}