{
  "address": "0x803a0d56A8CB4beD2073832e7425BaF15a4B6518",
  "abi": [
    {
      "inputs": [
        {
          "internalType": "contract BaseRegistrarImplementation",
          "name": "_base",
          "type": "address"
        },
        {
          "internalType": "contract PriceOracle",
          "name": "_prices",
          "type": "address"
        },
        {
          "internalType": "uint256",
          "name": "_minCommitmentAge",
          "type": "uint256"
        },
        {
          "internalType": "uint256",
          "name": "_maxCommitmentAge",
          "type": "uint256"
        }
      ],
      "stateMutability": "nonpayable",
      "type": "constructor"
    },
    {
      "anonymous": false,
      "inputs": [
        {
          "indexed": false,
          "internalType": "string",
          "name": "name",
          "type": "string"
        },
        {
          "indexed": true,
          "internalType": "bytes32",
          "name": "label",
          "type": "bytes32"
        },
        {
          "indexed": true,
          "internalType": "address",
          "name": "owner",
          "type": "address"
        },
        {
          "indexed": false,
          "internalType": "uint256",
          "name": "cost",
          "type": "uint256"
        }
      ],
      "name": "NameRegistered",
      "type": "event"
    },
    {
      "anonymous": false,
      "inputs": [
        {
          "indexed": true,
          "internalType": "address",
          "name": "oracle",
          "type": "address"
        }
      ],
      "name": "NewPriceOracle",
      "type": "event"
    },
    {
      "anonymous": false,
      "inputs": [
        {
          "indexed": true,
          "internalType": "address",
          "name": "previousOwner",
          "type": "address"
        },
        {
          "indexed": true,
          "internalType": "address",
          "name": "newOwner",
          "type": "address"
        }
      ],
      "name": "OwnershipTransferred",
      "type": "event"
    },
    {
      "inputs": [
        {
          "internalType": "string",
          "name": "name",
          "type": "string"
        }
      ],
      "name": "available",
      "outputs": [
        {
          "internalType": "bool",
          "name": "",
          "type": "bool"
        }
      ],
      "stateMutability": "view",
      "type": "function"
    },
    {
      "inputs": [
        {
          "internalType": "bytes32",
          "name": "commitment",
          "type": "bytes32"
        }
      ],
      "name": "commit",
      "outputs": [],
      "stateMutability": "nonpayable",
      "type": "function"
    },
    {
      "inputs": [
        {
          "internalType": "bytes32",
          "name": "",
          "type": "bytes32"
        }
      ],
      "name": "commitments",
      "outputs": [
        {
          "internalType": "uint256",
          "name": "",
          "type": "uint256"
        }
      ],
      "stateMutability": "view",
      "type": "function"
    },
    {
      "inputs": [
        {
          "internalType": "string",
          "name": "name",
          "type": "string"
        },
        {
          "internalType": "address",
          "name": "owner",
          "type": "address"
        },
        {
          "internalType": "bytes32",
          "name": "secret",
          "type": "bytes32"
        }
      ],
      "name": "makeCommitment",
      "outputs": [
        {
          "internalType": "bytes32",
          "name": "",
          "type": "bytes32"
        }
      ],
      "stateMutability": "pure",
      "type": "function"
    },
    {
      "inputs": [
        {
          "internalType": "string",
          "name": "name",
          "type": "string"
        },
        {
          "internalType": "address",
          "name": "owner",
          "type": "address"
        },
        {
          "internalType": "bytes32",
          "name": "secret",
          "type": "bytes32"
        },
        {
          "internalType": "address",
          "name": "resolver",
          "type": "address"
        },
        {
          "internalType": "address",
          "name": "addr",
          "type": "address"
        }
      ],
      "name": "makeCommitmentWithConfig",
      "outputs": [
        {
          "internalType": "bytes32",
          "name": "",
          "type": "bytes32"
        }
      ],
      "stateMutability": "pure",
      "type": "function"
    },
    {
      "inputs": [],
      "name": "maxCommitmentAge",
      "outputs": [
        {
          "internalType": "uint256",
          "name": "",
          "type": "uint256"
        }
      ],
      "stateMutability": "view",
      "type": "function"
    },
    {
      "inputs": [],
      "name": "minCommitmentAge",
      "outputs": [
        {
          "internalType": "uint256",
          "name": "",
          "type": "uint256"
        }
      ],
      "stateMutability": "view",
      "type": "function"
    },
    {
      "inputs": [],
      "name": "owner",
      "outputs": [
        {
          "internalType": "address",
          "name": "",
          "type": "address"
        }
      ],
      "stateMutability": "view",
      "type": "function"
    },
    {
      "inputs": [
        {
          "internalType": "string",
          "name": "name",
          "type": "string"
        }
      ],
      "name": "price",
      "outputs": [
        {
          "internalType": "uint256",
          "name": "",
          "type": "uint256"
        }
      ],
      "stateMutability": "view",
      "type": "function"
    },
    {
      "inputs": [
        {
          "internalType": "string",
          "name": "name",
          "type": "string"
        },
        {
          "internalType": "address",
          "name": "owner",
          "type": "address"
        },
        {
          "internalType": "bytes32",
          "name": "secret",
          "type": "bytes32"
        }
      ],
      "name": "register",
      "outputs": [],
      "stateMutability": "payable",
      "type": "function"
    },
    {
      "inputs": [
        {
          "internalType": "string",
          "name": "name",
          "type": "string"
        },
        {
          "internalType": "address",
          "name": "owner",
          "type": "address"
        },
        {
          "internalType": "bytes32",
          "name": "secret",
          "type": "bytes32"
        },
        {
          "internalType": "address",
          "name": "resolver",
          "type": "address"
        },
        {
          "internalType": "address",
          "name": "addr",
          "type": "address"
        }
      ],
      "name": "registerWithConfig",
      "outputs": [],
      "stateMutability": "payable",
      "type": "function"
    },
    {
      "inputs": [],
      "name": "renounceOwnership",
      "outputs": [],
      "stateMutability": "nonpayable",
      "type": "function"
    },
    {
      "inputs": [],
      "name": "requireCommitReveal",
      "outputs": [
        {
          "internalType": "bool",
          "name": "",
          "type": "bool"
        }
      ],
      "stateMutability": "view",
      "type": "function"
    },
    {
      "inputs": [
        {
          "internalType": "uint256",
          "name": "_minCommitmentAge",
          "type": "uint256"
        },
        {
          "internalType": "uint256",
          "name": "_maxCommitmentAge",
          "type": "uint256"
        }
      ],
      "name": "setCommitmentAges",
      "outputs": [],
      "stateMutability": "nonpayable",
      "type": "function"
    },
    {
      "inputs": [
        {
          "internalType": "contract PriceOracle",
          "name": "_prices",
          "type": "address"
        }
      ],
      "name": "setPriceOracle",
      "outputs": [],
      "stateMutability": "nonpayable",
      "type": "function"
    },
    {
      "inputs": [
        {
          "internalType": "bool",
          "name": "_requireCommitReveal",
          "type": "bool"
        }
      ],
      "name": "setRequireCommitReveal",
      "outputs": [],
      "stateMutability": "nonpayable",
      "type": "function"
    },
    {
      "inputs": [
        {
          "internalType": "bytes4",
          "name": "interfaceID",
          "type": "bytes4"
        }
      ],
      "name": "supportsInterface",
      "outputs": [
        {
          "internalType": "bool",
          "name": "",
          "type": "bool"
        }
      ],
      "stateMutability": "pure",
      "type": "function"
    },
    {
      "inputs": [
        {
          "internalType": "address",
          "name": "newOwner",
          "type": "address"
        }
      ],
      "name": "transferOwnership",
      "outputs": [],
      "stateMutability": "nonpayable",
      "type": "function"
    },
    {
      "inputs": [
        {
          "internalType": "string",
          "name": "name",
          "type": "string"
        }
      ],
      "name": "valid",
      "outputs": [
        {
          "internalType": "bool",
          "name": "",
          "type": "bool"
        }
      ],
      "stateMutability": "pure",
      "type": "function"
    },
    {
      "inputs": [],
      "name": "withdraw",
      "outputs": [],
      "stateMutability": "nonpayable",
      "type": "function"
    }
  ],
  "transactionHash": "0xd091b037fa2964ad8dc44a2a2c4af100986f25a36bc35c61a4fb4534a52b5b5c",
  "args": [
    "0x8436F16c090B0A6B2A7ae4CfCc82E007302a4b38",
    "0x976e50a38d7f15FfB9DB95ff0562b87436bc764e",
    60,
    604800
  ],
  "solcInputHash": "cd8af9d3240bfdcb5f41fedbfd7c477d",
  "bytecode": "0x60806040526000805460ff60a01b191690553480156200001e57600080fd5b5060405162001a6838038062001a688339810160408190526200004191620000e8565b6200004c3362000098565b8181116200005957600080fd5b600180546001600160a01b039586166001600160a01b03199182161790915560028054949095169316929092179092556003919091556004556200014d565b600080546001600160a01b038381166001600160a01b0319831681178455604051919092169283917f8be0079c531659141344cd1fd0a4f28419497f9722a3daafe3b4186f6b6457e09190a35050565b60008060008060808587031215620000fe578384fd5b84516200010b8162000134565b60208601519094506200011e8162000134565b6040860151606090960151949790965092505050565b6001600160a01b03811681146200014a57600080fd5b50565b61190b806200015d6000396000f3fe60806040526004361061015f5760003560e01c80639791c097116100c0578063f14fcbc811610074578063f34b95b311610059578063f34b95b3146103a6578063f49826be146103b9578063fe2c6198146103d957600080fd5b8063f14fcbc814610366578063f2fde38b1461038657600080fd5b8063b7c50ec8116100a5578063b7c50ec8146102fe578063ce1e09c01461031e578063d5141cf61461033457600080fd5b80639791c097146102be578063aeb8ce9b146102de57600080fd5b8063715018a611610117578063839df945116100fc578063839df945146102465780638d839ffe146102735780638da5cb5b1461028957600080fd5b8063715018a6146102115780637e3244791461022657600080fd5b80633d86c52f116101485780633d86c52f146101b0578063530e784f146101de5780636acb4f91146101fe57600080fd5b806301ffc9a7146101645780633ccfd60b14610199575b600080fd5b34801561017057600080fd5b5061018461017f366004611536565b6103f9565b60405190151581526020015b60405180910390f35b3480156101a557600080fd5b506101ae6104de565b005b3480156101bc57600080fd5b506101d06101cb3660046116a1565b610515565b604051908152602001610190565b3480156101ea57600080fd5b506101ae6101f93660046114b2565b61065a565b6101ae61020c3660046116a1565b6106d1565b34801561021d57600080fd5b506101ae610ced565b34801561023257600080fd5b506101ae610241366004611720565b610d01565b34801561025257600080fd5b506101d0610261366004611506565b60056020526000908152604090205481565b34801561027f57600080fd5b506101d060035481565b34801561029557600080fd5b5060005460405173ffffffffffffffffffffffffffffffffffffffff9091168152602001610190565b3480156102ca57600080fd5b506101846102d9366004611616565b610d14565b3480156102ea57600080fd5b506101846102f9366004611616565b610d29565b34801561030a57600080fd5b506101ae6103193660046114ce565b610dec565b34801561032a57600080fd5b506101d060045481565b34801561034057600080fd5b506000546101849074010000000000000000000000000000000000000000900460ff1681565b34801561037257600080fd5b506101ae610381366004611506565b610e3e565b34801561039257600080fd5b506101ae6103a13660046114b2565b610e78565b6101ae6103b4366004611592565b610f31565b3480156103c557600080fd5b506101d06103d4366004611649565b610f7a565b3480156103e557600080fd5b506101d06103f4366004611616565b610f92565b60007fffffffff0000000000000000000000000000000000000000000000000000000082167f01ffc9a700000000000000000000000000000000000000000000000000000000148061048c57507fffffffff0000000000000000000000000000000000000000000000000000000082167fa608d7c600000000000000000000000000000000000000000000000000000000145b806104d857507fffffffff0000000000000000000000000000000000000000000000000000000082167f574d8abe00000000000000000000000000000000000000000000000000000000145b92915050565b6104e6611039565b60405133904780156108fc02916000818181858888f19350505050158015610512573d6000803e3d6000fd5b50565b8451602086012060009073ffffffffffffffffffffffffffffffffffffffff8416158015610557575073ffffffffffffffffffffffffffffffffffffffff8316155b156105bd5760408051602081018390527fffffffffffffffffffffffffffffffffffffffff000000000000000000000000606089901b16918101919091526054810186905260740160405160208183030381529060405280519060200120915050610651565b73ffffffffffffffffffffffffffffffffffffffff84166105dd57600080fd5b60408051602081018390527fffffffffffffffffffffffffffffffffffffffff000000000000000000000000606089811b82169383019390935286831b811660548301529185901b9091166068820152607c8101869052609c01604051602081830303815290604052805190602001209150505b95945050505050565b610662611039565b600280547fffffffffffffffffffffffff00000000000000000000000000000000000000001673ffffffffffffffffffffffffffffffffffffffff83169081179091556040517ff261845a790fe29bbd6631e2ca4a5bdc83e6eed7c3271d9590d97287e00e912390600090a250565b6000805474010000000000000000000000000000000000000000900460ff166106fb576000610708565b6107088686868686610515565b9050600061071687836110ba565b875160208901209091508073ffffffffffffffffffffffffffffffffffffffff861615610ba3576001546040517fdbbdf0830000000000000000000000000000000000000000000000000000000081526004810183905230602482015273ffffffffffffffffffffffffffffffffffffffff9091169063dbbdf08390604401600060405180830381600087803b1580156107af57600080fd5b505af11580156107c3573d6000803e3d6000fd5b505050506000600160009054906101000a900473ffffffffffffffffffffffffffffffffffffffff1673ffffffffffffffffffffffffffffffffffffffff1663ddf7fcb06040518163ffffffff1660e01b815260040160206040518083038186803b15801561083157600080fd5b505afa158015610845573d6000803e3d6000fd5b505050506040513d601f19601f82011682018060405250810190610869919061151e565b6040805160208101929092528101849052606001604080517fffffffffffffffffffffffffffffffffffffffffffffffffffffffffffffffe081840301815282825280516020918201206001547f3f15457f000000000000000000000000000000000000000000000000000000008552925190945073ffffffffffffffffffffffffffffffffffffffff90921692633f15457f9260048083019392829003018186803b15801561091857600080fd5b505afa15801561092c573d6000803e3d6000fd5b505050506040513d601f19601f820116820180604052508101906109509190611576565b6040517f1896f70a0000000000000000000000000000000000000000000000000000000081526004810183905273ffffffffffffffffffffffffffffffffffffffff89811660248301529190911690631896f70a90604401600060405180830381600087803b1580156109c257600080fd5b505af11580156109d6573d6000803e3d6000fd5b5050505073ffffffffffffffffffffffffffffffffffffffff861615610a7f576040517fd5fa2b000000000000000000000000000000000000000000000000000000000081526004810182905273ffffffffffffffffffffffffffffffffffffffff878116602483015288169063d5fa2b0090604401600060405180830381600087803b158015610a6657600080fd5b505af1158015610a7a573d6000803e3d6000fd5b505050505b6001546040517f28ed4f6c0000000000000000000000000000000000000000000000000000000081526004810184905273ffffffffffffffffffffffffffffffffffffffff8b81166024830152909116906328ed4f6c90604401600060405180830381600087803b158015610af357600080fd5b505af1158015610b07573d6000803e3d6000fd5b50506001546040517f23b872dd00000000000000000000000000000000000000000000000000000000815230600482015273ffffffffffffffffffffffffffffffffffffffff8d811660248301526044820187905290911692506323b872dd9150606401600060405180830381600087803b158015610b8557600080fd5b505af1158015610b99573d6000803e3d6000fd5b5050505050610c51565b73ffffffffffffffffffffffffffffffffffffffff851615610bc457600080fd5b6001546040517fdbbdf0830000000000000000000000000000000000000000000000000000000081526004810183905273ffffffffffffffffffffffffffffffffffffffff8a811660248301529091169063dbbdf08390604401600060405180830381600087803b158015610c3857600080fd5b505af1158015610c4c573d6000803e3d6000fd5b505050505b8773ffffffffffffffffffffffffffffffffffffffff16827f0667086d08417333ce63f40d5bc2ef6fd330e25aaaf317b7c489541f8fe600fa8b86604051610c9a9291906117bd565b60405180910390a382341115610ce257336108fc610cb885346117f7565b6040518115909202916000818181858888f19350505050158015610ce0573d6000803e3d6000fd5b505b505050505050505050565b610cf5611039565b610cff600061116a565b565b610d09611039565b600391909155600455565b60006001610d21836111df565b101592915050565b80516020820120600090610d3c83610d14565b8015610de557506001546040517f96e494e80000000000000000000000000000000000000000000000000000000081526004810183905273ffffffffffffffffffffffffffffffffffffffff909116906396e494e89060240160206040518083038186803b158015610dad57600080fd5b505afa158015610dc1573d6000803e3d6000fd5b505050506040513d601f19601f82011682018060405250810190610de591906114ea565b9392505050565b610df4611039565b6000805491151574010000000000000000000000000000000000000000027fffffffffffffffffffffff00ffffffffffffffffffffffffffffffffffffffff909216919091179055565b6004546000828152600560205260409020544291610e5b916117df565b10610e6557600080fd5b6000908152600560205260409020429055565b610e80611039565b73ffffffffffffffffffffffffffffffffffffffff8116610f28576040517f08c379a000000000000000000000000000000000000000000000000000000000815260206004820152602660248201527f4f776e61626c653a206e6577206f776e657220697320746865207a65726f206160448201527f646472657373000000000000000000000000000000000000000000000000000060648201526084015b60405180910390fd5b6105128161116a565b610f7484848080601f01602080910402602001604051908101604052809392919081815260200183838082843760009201829052508793508692509050806106d1565b50505050565b6000610f8a848484600080610515565b949350505050565b6002546040517ffe2c619800000000000000000000000000000000000000000000000000000000815260009173ffffffffffffffffffffffffffffffffffffffff169063fe2c619890610fe99085906004016117aa565b60206040518083038186803b15801561100157600080fd5b505afa158015611015573d6000803e3d6000fd5b505050506040513d601f19601f820116820180604052508101906104d8919061151e565b60005473ffffffffffffffffffffffffffffffffffffffff163314610cff576040517f08c379a000000000000000000000000000000000000000000000000000000000815260206004820181905260248201527f4f776e61626c653a2063616c6c6572206973206e6f7420746865206f776e65726044820152606401610f1f565b60006110c583610d29565b6110ce57600080fd5b60005474010000000000000000000000000000000000000000900460ff161561115057600354600083815260056020526040902054429161110e916117df565b111561111957600080fd5b6004546000838152600560205260409020544291611136916117df565b1161114057600080fd5b6000828152600560205260408120555b600061115b84610f92565b905080341015610de557600080fd5b6000805473ffffffffffffffffffffffffffffffffffffffff8381167fffffffffffffffffffffffff0000000000000000000000000000000000000000831681178455604051919092169283917f8be0079c531659141344cd1fd0a4f28419497f9722a3daafe3b4186f6b6457e09190a35050565b8051600090819081905b8082101561140457600085838151811061122c577f4e487b7100000000000000000000000000000000000000000000000000000000600052603260045260246000fd5b01602001517fff000000000000000000000000000000000000000000000000000000000000001690507f800000000000000000000000000000000000000000000000000000000000000081101561128f576112886001846117df565b92506113f1565b7fe0000000000000000000000000000000000000000000000000000000000000007fff00000000000000000000000000000000000000000000000000000000000000821610156112e4576112886002846117df565b7ff0000000000000000000000000000000000000000000000000000000000000007fff0000000000000000000000000000000000000000000000000000000000000082161015611339576112886003846117df565b7ff8000000000000000000000000000000000000000000000000000000000000007fff000000000000000000000000000000000000000000000000000000000000008216101561138e576112886004846117df565b7ffc000000000000000000000000000000000000000000000000000000000000007fff00000000000000000000000000000000000000000000000000000000000000821610156113e3576112886005846117df565b6113ee6006846117df565b92505b50826113fc8161180e565b9350506111e9565b50909392505050565b600082601f83011261141d578081fd5b813567ffffffffffffffff8082111561143857611438611876565b604051601f83017fffffffffffffffffffffffffffffffffffffffffffffffffffffffffffffffe0908116603f0116810190828211818310171561147e5761147e611876565b81604052838152866020858801011115611496578485fd5b8360208701602083013792830160200193909352509392505050565b6000602082840312156114c3578081fd5b8135610de5816118a5565b6000602082840312156114df578081fd5b8135610de5816118c7565b6000602082840312156114fb578081fd5b8151610de5816118c7565b600060208284031215611517578081fd5b5035919050565b60006020828403121561152f578081fd5b5051919050565b600060208284031215611547578081fd5b81357fffffffff0000000000000000000000000000000000000000000000000000000081168114610de5578182fd5b600060208284031215611587578081fd5b8151610de5816118a5565b600080600080606085870312156115a7578283fd5b843567ffffffffffffffff808211156115be578485fd5b818701915087601f8301126115d1578485fd5b8135818111156115df578586fd5b8860208285010111156115f0578586fd5b60209283019650945050850135611606816118a5565b9396929550929360400135925050565b600060208284031215611627578081fd5b813567ffffffffffffffff81111561163d578182fd5b610f8a8482850161140d565b60008060006060848603121561165d578283fd5b833567ffffffffffffffff811115611673578384fd5b61167f8682870161140d565b9350506020840135611690816118a5565b929592945050506040919091013590565b600080600080600060a086880312156116b8578081fd5b853567ffffffffffffffff8111156116ce578182fd5b6116da8882890161140d565b95505060208601356116eb816118a5565b9350604086013592506060860135611702816118a5565b91506080860135611712816118a5565b809150509295509295909350565b60008060408385031215611732578182fd5b50508035926020909101359150565b60008151808452815b818110156117665760208185018101518683018201520161174a565b818111156117775782602083870101525b50601f017fffffffffffffffffffffffffffffffffffffffffffffffffffffffffffffffe0169290920160200192915050565b602081526000610de56020830184611741565b6040815260006117d06040830185611741565b90508260208301529392505050565b600082198211156117f2576117f2611847565b500190565b60008282101561180957611809611847565b500390565b60007fffffffffffffffffffffffffffffffffffffffffffffffffffffffffffffffff82141561184057611840611847565b5060010190565b7f4e487b7100000000000000000000000000000000000000000000000000000000600052601160045260246000fd5b7f4e487b7100000000000000000000000000000000000000000000000000000000600052604160045260246000fd5b73ffffffffffffffffffffffffffffffffffffffff8116811461051257600080fd5b801515811461051257600080fdfea264697066735822122073d6c1fa10c6a0e22cfe3c986f70b07a6e1694e1999be92a9055bed2fa78f7e364736f6c63430008040033",
  "devdoc": {
    "details": "A registrar controller for registering names at fixed cost. An updated version of the previously deployed ETHRegistrarController.",
    "kind": "dev",
    "methods": {
      "owner()": {
        "details": "Returns the address of the current owner."
      },
      "renounceOwnership()": {
        "details": "Leaves the contract without owner. It will not be possible to call `onlyOwner` functions anymore. Can only be called by the current owner. NOTE: Renouncing ownership will leave the contract without an owner, thereby removing any functionality that is only available to the owner."
      },
      "transferOwnership(address)": {
        "details": "Transfers ownership of the contract to a new account (`newOwner`). Can only be called by the current owner."
      }
    },
    "version": 1
  },
  "userdoc": {
    "kind": "user",
    "methods": {},
    "version": 1
  },
  "storageLayout": {
    "storage": [
      {
        "astId": 545,
        "contract": "contracts/ethregistrar/ForeverRegistrarController.sol:ForeverRegistrarController",
        "label": "_owner",
        "offset": 0,
        "slot": "0",
        "type": "t_address"
      },
      {
        "astId": 11273,
        "contract": "contracts/ethregistrar/ForeverRegistrarController.sol:ForeverRegistrarController",
        "label": "requireCommitReveal",
        "offset": 20,
        "slot": "0",
        "type": "t_bool"
      },
      {
        "astId": 11320,
        "contract": "contracts/ethregistrar/ForeverRegistrarController.sol:ForeverRegistrarController",
        "label": "base",
        "offset": 0,
        "slot": "1",
        "type": "t_contract(BaseRegistrarImplementation)10607"
      },
      {
        "astId": 11323,
        "contract": "contracts/ethregistrar/ForeverRegistrarController.sol:ForeverRegistrarController",
        "label": "prices",
        "offset": 0,
        "slot": "2",
        "type": "t_contract(PriceOracle)11911"
      },
      {
        "astId": 11325,
        "contract": "contracts/ethregistrar/ForeverRegistrarController.sol:ForeverRegistrarController",
        "label": "minCommitmentAge",
        "offset": 0,
        "slot": "3",
        "type": "t_uint256"
      },
      {
        "astId": 11327,
        "contract": "contracts/ethregistrar/ForeverRegistrarController.sol:ForeverRegistrarController",
        "label": "maxCommitmentAge",
        "offset": 0,
        "slot": "4",
        "type": "t_uint256"
      },
      {
        "astId": 11331,
        "contract": "contracts/ethregistrar/ForeverRegistrarController.sol:ForeverRegistrarController",
        "label": "commitments",
        "offset": 0,
        "slot": "5",
        "type": "t_mapping(t_bytes32,t_uint256)"
      }
    ],
    "types": {
      "t_address": {
        "encoding": "inplace",
        "label": "address",
        "numberOfBytes": "20"
      },
      "t_bool": {
        "encoding": "inplace",
        "label": "bool",
        "numberOfBytes": "1"
      },
      "t_bytes32": {
        "encoding": "inplace",
        "label": "bytes32",
        "numberOfBytes": "32"
      },
      "t_contract(BaseRegistrarImplementation)10607": {
        "encoding": "inplace",
        "label": "contract BaseRegistrarImplementation",
        "numberOfBytes": "20"
      },
      "t_contract(PriceOracle)11911": {
        "encoding": "inplace",
        "label": "contract PriceOracle",
        "numberOfBytes": "20"
      },
      "t_mapping(t_bytes32,t_uint256)": {
        "encoding": "mapping",
        "key": "t_bytes32",
        "label": "mapping(bytes32 => uint256)",
        "numberOfBytes": "32",
        "value": "t_uint256"
      },
      "t_uint256": {
        "encoding": "inplace",
        "label": "uint256",
        "numberOfBytes": "32"
      }
    }
  }
}