{
  "address": "0x976e50a38d7f15FfB9DB95ff0562b87436bc764e",
  "abi": [
    {
      "inputs": [
        {
          "internalType": "contract AggregatorInterface",
          "name": "_usdOracle",
          "type": "address"
        },
        {
          "internalType": "uint256[]",
          "name": "_prices",
          "type": "uint256[]"
        }
      ],
      "stateMutability": "nonpayable",
      "type": "constructor"
    },
    {
      "anonymous": false,
      "inputs": [
        {
          "indexed": false,
          "internalType": "address",
          "name": "oracle",
          "type": "address"
        }
      ],
      "name": "OracleChanged",
      "type": "event"
    },
    {
      "anonymous": false,
      "inputs": [
        {
          "indexed": true,
          "internalType": "address",
          "name": "previousOwner",
          "type": "address"
        },
        {
          "indexed": true,
          "internalType": "address",
          "name": "newOwner",
          "type": "address"
        }
      ],
      "name": "OwnershipTransferred",
      "type": "event"
    },
    {
      "anonymous": false,
      "inputs": [
        {
          "indexed": false,
          "internalType": "uint256[]",
          "name": "prices",
          "type": "uint256[]"
        }
      ],
      "name": "PriceChanged",
      "type": "event"
    },
    {
      "inputs": [],
      "name": "owner",
      "outputs": [
        {
          "internalType": "address",
          "name": "",
          "type": "address"
        }
      ],
      "stateMutability": "view",
      "type": "function"
    },
    {
      "inputs": [
        {
          "internalType": "string",
          "name": "name",
          "type": "string"
        }
      ],
      "name": "premium",
      "outputs": [
        {
          "internalType": "uint256",
          "name": "",
          "type": "uint256"
        }
      ],
      "stateMutability": "view",
      "type": "function"
    },
    {
      "inputs": [
        {
          "internalType": "string",
          "name": "name",
          "type": "string"
        }
      ],
      "name": "price",
      "outputs": [
        {
          "internalType": "uint256",
          "name": "",
          "type": "uint256"
        }
      ],
      "stateMutability": "view",
      "type": "function"
    },
    {
      "inputs": [
        {
          "internalType": "uint256",
          "name": "",
          "type": "uint256"
        }
      ],
      "name": "prices",
      "outputs": [
        {
          "internalType": "uint256",
          "name": "",
          "type": "uint256"
        }
      ],
      "stateMutability": "view",
      "type": "function"
    },
    {
      "inputs": [],
      "name": "renounceOwnership",
      "outputs": [],
      "stateMutability": "nonpayable",
      "type": "function"
    },
    {
      "inputs": [
        {
          "internalType": "contract AggregatorInterface",
          "name": "_usdOracle",
          "type": "address"
        }
      ],
      "name": "setOracle",
      "outputs": [],
      "stateMutability": "nonpayable",
      "type": "function"
    },
    {
      "inputs": [
        {
          "internalType": "uint256[]",
          "name": "_prices",
          "type": "uint256[]"
        }
      ],
      "name": "setPrices",
      "outputs": [],
      "stateMutability": "nonpayable",
      "type": "function"
    },
    {
      "inputs": [
        {
          "internalType": "bytes4",
          "name": "interfaceID",
          "type": "bytes4"
        }
      ],
      "name": "supportsInterface",
      "outputs": [
        {
          "internalType": "bool",
          "name": "",
          "type": "bool"
        }
      ],
      "stateMutability": "view",
      "type": "function"
    },
    {
      "inputs": [
        {
          "internalType": "address",
          "name": "newOwner",
          "type": "address"
        }
      ],
      "name": "transferOwnership",
      "outputs": [],
      "stateMutability": "nonpayable",
      "type": "function"
    },
    {
      "inputs": [],
      "name": "usdOracle",
      "outputs": [
        {
          "internalType": "contract AggregatorInterface",
          "name": "",
          "type": "address"
        }
      ],
      "stateMutability": "view",
      "type": "function"
    }
  ],
  "transactionHash": "0x1e1dd7116dd03249611a0df5f1de22e787e41a8b3f4b2acb5d00576cfdc7c598",
  "args": [
    "0xDc64a140Aa3E981100a9becA4E685f962f0cF6C9",
    [
      "1000000000000000000000",
      "500000000000000000000",
      "100000000000000000000"
    ]
  ],
  "solcInputHash": "af6dadacf06c5b8f555c7ff398a0eb62",
  "bytecode": "0x60806040523480156200001157600080fd5b5060405162001d3e38038062001d3e833981810160405281019062000037919062000397565b6000620000496200014160201b60201c565b9050806000806101000a81548173ffffffffffffffffffffffffffffffffffffffff021916908373ffffffffffffffffffffffffffffffffffffffff1602179055508073ffffffffffffffffffffffffffffffffffffffff16600073ffffffffffffffffffffffffffffffffffffffff167f8be0079c531659141344cd1fd0a4f28419497f9722a3daafe3b4186f6b6457e060405160405180910390a35081600260006101000a81548173ffffffffffffffffffffffffffffffffffffffff021916908373ffffffffffffffffffffffffffffffffffffffff16021790555062000139816200014960201b60201c565b5050620006ba565b600033905090565b620001596200014160201b60201c565b73ffffffffffffffffffffffffffffffffffffffff166200017f6200022d60201b60201c565b73ffffffffffffffffffffffffffffffffffffffff1614620001d8576040517f08c379a0000000000000000000000000000000000000000000000000000000008152600401620001cf90620004d1565b60405180910390fd5b8060019080519060200190620001f092919062000256565b507f205152ff14678ea9d228fb51f9d3551e83109917eff381ef94f92aef647fb01581604051620002229190620004ad565b60405180910390a150565b60008060009054906101000a900473ffffffffffffffffffffffffffffffffffffffff16905090565b82805482825590600052602060002090810192821562000295579160200282015b828111156200029457825182559160200191906001019062000277565b5b509050620002a49190620002a8565b5090565b5b80821115620002c3576000816000905550600101620002a9565b5090565b6000620002de620002d8846200051c565b620004f3565b90508083825260208201905082856020860282011115620002fe57600080fd5b60005b8581101562000332578162000317888262000380565b84526020840193506020830192505060018101905062000301565b5050509392505050565b600082601f8301126200034e57600080fd5b815162000360848260208601620002c7565b91505092915050565b6000815190506200037a8162000686565b92915050565b6000815190506200039181620006a0565b92915050565b60008060408385031215620003ab57600080fd5b6000620003bb8582860162000369565b925050602083015167ffffffffffffffff811115620003d957600080fd5b620003e7858286016200033c565b9150509250929050565b6000620003ff83836200049c565b60208301905092915050565b600062000418826200055b565b62000424818562000573565b935062000431836200054b565b8060005b83811015620004685781516200044c8882620003f1565b9750620004598362000566565b92505060018101905062000435565b5085935050505092915050565b60006200048460208362000584565b915062000491826200065d565b602082019050919050565b620004a781620005dd565b82525050565b60006020820190508181036000830152620004c981846200040b565b905092915050565b60006020820190508181036000830152620004ec8162000475565b9050919050565b6000620004ff62000512565b90506200050d8282620005e7565b919050565b6000604051905090565b600067ffffffffffffffff8211156200053a57620005396200061d565b5b602082029050602081019050919050565b6000819050602082019050919050565b600081519050919050565b6000602082019050919050565b600082825260208201905092915050565b600082825260208201905092915050565b6000620005a282620005bd565b9050919050565b6000620005b68262000595565b9050919050565b600073ffffffffffffffffffffffffffffffffffffffff82169050919050565b6000819050919050565b620005f2826200064c565b810181811067ffffffffffffffff821117156200061457620006136200061d565b5b80604052505050565b7f4e487b7100000000000000000000000000000000000000000000000000000000600052604160045260246000fd5b6000601f19601f8301169050919050565b7f4f776e61626c653a2063616c6c6572206973206e6f7420746865206f776e6572600082015250565b6200069181620005a9565b81146200069d57600080fd5b50565b620006ab81620005dd565b8114620006b757600080fd5b50565b61167480620006ca6000396000f3fe608060405234801561001057600080fd5b506004361061009e5760003560e01c80638fb00688116100665780638fb0068814610133578063bc31c1c114610163578063c8a4271f14610193578063f2fde38b146101b1578063fe2c6198146101cd5761009e565b806301ffc9a7146100a3578063715018a6146100d357806379cf92d3146100dd5780637adbf973146100f95780638da5cb5b14610115575b600080fd5b6100bd60048036038101906100b89190610f19565b6101fd565b6040516100ca9190611146565b60405180910390f35b6100db6102f1565b005b6100f760048036038101906100f29190610ed8565b61042b565b005b610113600480360381019061010e9190610f42565b6104f8565b005b61011d6105ef565b60405161012a9190611109565b60405180910390f35b61014d60048036038101906101489190610f94565b610618565b60405161015a91906111bc565b60405180910390f35b61017d60048036038101906101789190610fd9565b610677565b60405161018a91906111bc565b60405180910390f35b61019b61069b565b6040516101a89190611161565b60405180910390f35b6101cb60048036038101906101c69190610eaf565b6106c1565b005b6101e760048036038101906101e29190610f94565b61086a565b6040516101f491906111bc565b60405180910390f35b60007f01ffc9a7a5cef8baa21ed3c5c0d7e23accb804b619e9333b597f47a0d84076e27bffffffffffffffffffffffffffffffffffffffffffffffffffffffff1916827bffffffffffffffffffffffffffffffffffffffffffffffffffffffff191614806102ea57507f8fb006889887fe22b99b1137685f6e3f300e6d1742d1a83bca46b580a98925387ffe2c619874d0eefe2754e000f94bf8e8d25af34324c98305907f8d29c90ee618187bffffffffffffffffffffffffffffffffffffffffffffffffffffffff1916827bffffffffffffffffffffffffffffffffffffffffffffffffffffffff1916145b9050919050565b6102f96109a7565b73ffffffffffffffffffffffffffffffffffffffff166103176105ef565b73ffffffffffffffffffffffffffffffffffffffff161461036d576040517f08c379a00000000000000000000000000000000000000000000000000000000081526004016103649061119c565b60405180910390fd5b600073ffffffffffffffffffffffffffffffffffffffff1660008054906101000a900473ffffffffffffffffffffffffffffffffffffffff1673ffffffffffffffffffffffffffffffffffffffff167f8be0079c531659141344cd1fd0a4f28419497f9722a3daafe3b4186f6b6457e060405160405180910390a360008060006101000a81548173ffffffffffffffffffffffffffffffffffffffff021916908373ffffffffffffffffffffffffffffffffffffffff160217905550565b6104336109a7565b73ffffffffffffffffffffffffffffffffffffffff166104516105ef565b73ffffffffffffffffffffffffffffffffffffffff16146104a7576040517f08c379a000000000000000000000000000000000000000000000000000000000815260040161049e9061119c565b60405180910390fd5b80600190805190602001906104bd929190610cfc565b507f205152ff14678ea9d228fb51f9d3551e83109917eff381ef94f92aef647fb015816040516104ed9190611124565b60405180910390a150565b6105006109a7565b73ffffffffffffffffffffffffffffffffffffffff1661051e6105ef565b73ffffffffffffffffffffffffffffffffffffffff1614610574576040517f08c379a000000000000000000000000000000000000000000000000000000000815260040161056b9061119c565b60405180910390fd5b80600260006101000a81548173ffffffffffffffffffffffffffffffffffffffff021916908373ffffffffffffffffffffffffffffffffffffffff1602179055507f0e05ae75e8b926552cf6fcd744d19f422561e3ced1e426868730852702dbe418816040516105e49190611109565b60405180910390a150565b60008060009054906101000a900473ffffffffffffffffffffffffffffffffffffffff16905090565b600061066f61066a84848080601f016020809104026020016040519081016040528093929190818152602001838380828437600081840152601f19601f820116905080830192505050505050506109af565b6109b6565b905092915050565b6001818154811061068757600080fd5b906000526020600020016000915090505481565b600260009054906101000a900473ffffffffffffffffffffffffffffffffffffffff1681565b6106c96109a7565b73ffffffffffffffffffffffffffffffffffffffff166106e76105ef565b73ffffffffffffffffffffffffffffffffffffffff161461073d576040517f08c379a00000000000000000000000000000000000000000000000000000000081526004016107349061119c565b60405180910390fd5b600073ffffffffffffffffffffffffffffffffffffffff168173ffffffffffffffffffffffffffffffffffffffff1614156107ad576040517f08c379a00000000000000000000000000000000000000000000000000000000081526004016107a49061117c565b60405180910390fd5b8073ffffffffffffffffffffffffffffffffffffffff1660008054906101000a900473ffffffffffffffffffffffffffffffffffffffff1673ffffffffffffffffffffffffffffffffffffffff167f8be0079c531659141344cd1fd0a4f28419497f9722a3daafe3b4186f6b6457e060405160405180910390a3806000806101000a81548173ffffffffffffffffffffffffffffffffffffffff021916908373ffffffffffffffffffffffffffffffffffffffff16021790555050565b6000806108ba84848080601f016020809104026020016040519081016040528093929190818152602001838380828437600081840152601f19601f82011690508083019250505050505050610a8c565b90506001805490508111156108d25760018054905090505b600081116108df57600080fd5b6000600180836108ef9190611353565b81548110610926577f4e487b7100000000000000000000000000000000000000000000000000000000600052603260045260246000fd5b9060005260206000200154905061099261098386868080601f016020809104026020016040519081016040528093929190818152602001838380828437600081840152601f19601f820116905080830192505050505050506109af565b82610c6790919063ffffffff16565b905061099d816109b6565b9250505092915050565b600033905090565b6000919050565b600080600260009054906101000a900473ffffffffffffffffffffffffffffffffffffffff1673ffffffffffffffffffffffffffffffffffffffff166350d25bcd6040518163ffffffff1660e01b815260040160206040518083038186803b158015610a2157600080fd5b505afa158015610a35573d6000803e3d6000fd5b505050506040513d601f19601f82011682018060405250810190610a599190610f6b565b9050610a8481610a766305f5e10086610c8f90919063ffffffff16565b610cd490919063ffffffff16565b915050919050565b60008060008084519050600092505b80821015610c5c576000858381518110610ade577f4e487b7100000000000000000000000000000000000000000000000000000000600052603260045260246000fd5b602001015160f81c60f81b9050608060f81b817effffffffffffffffffffffffffffffffffffffffffffffffffffffffffffff19161015610b2d57600183610b269190611272565b9250610c48565b60e060f81b817effffffffffffffffffffffffffffffffffffffffffffffffffffffffffffff19161015610b6f57600283610b689190611272565b9250610c47565b60f060f81b817effffffffffffffffffffffffffffffffffffffffffffffffffffffffffffff19161015610bb157600383610baa9190611272565b9250610c46565b60f8801b817effffffffffffffffffffffffffffffffffffffffffffffffffffffffffffff19161015610bf257600483610beb9190611272565b9250610c45565b60fc60f81b817effffffffffffffffffffffffffffffffffffffffffffffffffffffffffffff19161015610c3457600583610c2d9190611272565b9250610c44565b600683610c419190611272565b92505b5b5b5b5b508280610c549061146c565b935050610a9b565b829350505050919050565b6000808284610c769190611272565b905083811015610c8557600080fd5b8091505092915050565b600080831415610ca25760009050610cce565b60008284610cb091906112f9565b9050828482610cbf91906112c8565b14610cc957600080fd5b809150505b92915050565b6000808211610ce257600080fd5b60008284610cf091906112c8565b90508091505092915050565b828054828255906000526020600020908101928215610d38579160200282015b82811115610d37578251825591602001919060010190610d1c565b5b509050610d459190610d49565b5090565b5b80821115610d62576000816000905550600101610d4a565b5090565b6000610d79610d74846111fc565b6111d7565b90508083825260208201905082856020860282011115610d9857600080fd5b60005b85811015610dc85781610dae8882610e9a565b845260208401935060208301925050600181019050610d9b565b5050509392505050565b600081359050610de1816115cb565b92915050565b600082601f830112610df857600080fd5b8135610e08848260208601610d66565b91505092915050565b600081359050610e20816115e2565b92915050565b600081359050610e35816115f9565b92915050565b600081519050610e4a81611610565b92915050565b60008083601f840112610e6257600080fd5b8235905067ffffffffffffffff811115610e7b57600080fd5b602083019150836001820283011115610e9357600080fd5b9250929050565b600081359050610ea981611627565b92915050565b600060208284031215610ec157600080fd5b6000610ecf84828501610dd2565b91505092915050565b600060208284031215610eea57600080fd5b600082013567ffffffffffffffff811115610f0457600080fd5b610f1084828501610de7565b91505092915050565b600060208284031215610f2b57600080fd5b6000610f3984828501610e11565b91505092915050565b600060208284031215610f5457600080fd5b6000610f6284828501610e26565b91505092915050565b600060208284031215610f7d57600080fd5b6000610f8b84828501610e3b565b91505092915050565b60008060208385031215610fa757600080fd5b600083013567ffffffffffffffff811115610fc157600080fd5b610fcd85828601610e50565b92509250509250929050565b600060208284031215610feb57600080fd5b6000610ff984828501610e9a565b91505092915050565b600061100e83836110eb565b60208301905092915050565b61102381611387565b82525050565b600061103482611238565b61103e8185611250565b935061104983611228565b8060005b8381101561107a5781516110618882611002565b975061106c83611243565b92505060018101905061104d565b5085935050505092915050565b61109081611399565b82525050565b61109f81611417565b82525050565b60006110b2602683611261565b91506110bd82611553565b604082019050919050565b60006110d5602083611261565b91506110e0826115a2565b602082019050919050565b6110f48161140d565b82525050565b6111038161140d565b82525050565b600060208201905061111e600083018461101a565b92915050565b6000602082019050818103600083015261113e8184611029565b905092915050565b600060208201905061115b6000830184611087565b92915050565b60006020820190506111766000830184611096565b92915050565b60006020820190508181036000830152611195816110a5565b9050919050565b600060208201905081810360008301526111b5816110c8565b9050919050565b60006020820190506111d160008301846110fa565b92915050565b60006111e16111f2565b90506111ed828261143b565b919050565b6000604051905090565b600067ffffffffffffffff82111561121757611216611513565b5b602082029050602081019050919050565b6000819050602082019050919050565b600081519050919050565b6000602082019050919050565b600082825260208201905092915050565b600082825260208201905092915050565b600061127d8261140d565b91506112888361140d565b9250827fffffffffffffffffffffffffffffffffffffffffffffffffffffffffffffffff038211156112bd576112bc6114b5565b5b828201905092915050565b60006112d38261140d565b91506112de8361140d565b9250826112ee576112ed6114e4565b5b828204905092915050565b60006113048261140d565b915061130f8361140d565b9250817fffffffffffffffffffffffffffffffffffffffffffffffffffffffffffffffff0483118215151615611348576113476114b5565b5b828202905092915050565b600061135e8261140d565b91506113698361140d565b92508282101561137c5761137b6114b5565b5b828203905092915050565b6000611392826113ed565b9050919050565b60008115159050919050565b60007fffffffff0000000000000000000000000000000000000000000000000000000082169050919050565b60006113dc82611387565b9050919050565b6000819050919050565b600073ffffffffffffffffffffffffffffffffffffffff82169050919050565b6000819050919050565b600061142282611429565b9050919050565b6000611434826113ed565b9050919050565b61144482611542565b810181811067ffffffffffffffff8211171561146357611462611513565b5b80604052505050565b60006114778261140d565b91507fffffffffffffffffffffffffffffffffffffffffffffffffffffffffffffffff8214156114aa576114a96114b5565b5b600182019050919050565b7f4e487b7100000000000000000000000000000000000000000000000000000000600052601160045260246000fd5b7f4e487b7100000000000000000000000000000000000000000000000000000000600052601260045260246000fd5b7f4e487b7100000000000000000000000000000000000000000000000000000000600052604160045260246000fd5b6000601f19601f8301169050919050565b7f4f776e61626c653a206e6577206f776e657220697320746865207a65726f206160008201527f6464726573730000000000000000000000000000000000000000000000000000602082015250565b7f4f776e61626c653a2063616c6c6572206973206e6f7420746865206f776e6572600082015250565b6115d481611387565b81146115df57600080fd5b50565b6115eb816113a5565b81146115f657600080fd5b50565b611602816113d1565b811461160d57600080fd5b50565b611619816113e3565b811461162457600080fd5b50565b6116308161140d565b811461163b57600080fd5b5056fea2646970667358221220c7eac486120050bc40260bafbb8450e5e2553158119ce4bff5878fd8ee3f153864736f6c63430008040033",
  "devdoc": {
    "kind": "dev",
    "methods": {
      "owner()": {
        "details": "Returns the address of the current owner."
      },
      "premium(string)": {
        "details": "Returns the pricing premium in wei."
      },
      "price(string)": {
        "details": "Returns the price to register a name.",
        "params": {
          "name": "The name being registered."
        },
        "returns": {
          "_0": "The price of this registration, in wei."
        }
      },
      "renounceOwnership()": {
        "details": "Leaves the contract without owner. It will not be possible to call `onlyOwner` functions anymore. Can only be called by the current owner. NOTE: Renouncing ownership will leave the contract without an owner, thereby removing any functionality that is only available to the owner."
      },
      "setOracle(address)": {
        "details": "Sets the price oracle address",
        "params": {
          "_usdOracle": "The address of the price oracle to use."
        }
      },
      "setPrices(uint256[])": {
        "details": "Sets prices.",
        "params": {
          "_prices": "The price array. Each element corresponds to a specific                    name length; names longer than the length of the array                    default to the price of the last element. Values are                    in base price units, equal to one attodollar (1e-18                    dollar) each."
        }
      },
      "transferOwnership(address)": {
        "details": "Transfers ownership of the contract to a new account (`newOwner`). Can only be called by the current owner."
      }
    },
    "version": 1
  },
  "userdoc": {
    "kind": "user",
    "methods": {},
    "version": 1
  },
  "storageLayout": {
    "storage": [
      {
        "astId": 545,
        "contract": "contracts/ethregistrar/StablePriceOracle.sol:StablePriceOracle",
        "label": "_owner",
        "offset": 0,
        "slot": "0",
        "type": "t_address"
      },
      {
        "astId": 10444,
        "contract": "contracts/ethregistrar/StablePriceOracle.sol:StablePriceOracle",
        "label": "prices",
        "offset": 0,
        "slot": "1",
        "type": "t_array(t_uint256)dyn_storage"
      },
      {
        "astId": 10447,
        "contract": "contracts/ethregistrar/StablePriceOracle.sol:StablePriceOracle",
        "label": "usdOracle",
        "offset": 0,
        "slot": "2",
        "type": "t_contract(AggregatorInterface)10433"
      }
    ],
    "types": {
      "t_address": {
        "encoding": "inplace",
        "label": "address",
        "numberOfBytes": "20"
      },
      "t_array(t_uint256)dyn_storage": {
        "base": "t_uint256",
        "encoding": "dynamic_array",
        "label": "uint256[]",
        "numberOfBytes": "32"
      },
      "t_contract(AggregatorInterface)10433": {
        "encoding": "inplace",
        "label": "contract AggregatorInterface",
        "numberOfBytes": "20"
      },
      "t_uint256": {
        "encoding": "inplace",
        "label": "uint256",
        "numberOfBytes": "32"
      }
    }
  }
}