{
  "address": "0x4C6a6f9Dfd12910B04D08E5e1d54a29e54D293ad",
  "abi": [
    {
      "inputs": [
        {
          "internalType": "contract BaseRegistrarImplementation",
          "name": "_base",
          "type": "address"
        },
        {
          "internalType": "contract PriceOracle",
          "name": "_prices",
          "type": "address"
        },
        {
          "internalType": "uint256",
          "name": "_minCommitmentAge",
          "type": "uint256"
        },
        {
          "internalType": "uint256",
          "name": "_maxCommitmentAge",
          "type": "uint256"
        }
      ],
      "stateMutability": "nonpayable",
      "type": "constructor"
    },
    {
      "anonymous": false,
      "inputs": [
        {
          "indexed": false,
          "internalType": "string",
          "name": "name",
          "type": "string"
        },
        {
          "indexed": true,
          "internalType": "bytes32",
          "name": "label",
          "type": "bytes32"
        },
        {
          "indexed": true,
          "internalType": "address",
          "name": "owner",
          "type": "address"
        },
        {
          "indexed": false,
          "internalType": "uint256",
          "name": "cost",
          "type": "uint256"
        }
      ],
      "name": "NameRegistered",
      "type": "event"
    },
    {
      "anonymous": false,
      "inputs": [
        {
          "indexed": true,
          "internalType": "address",
          "name": "oracle",
          "type": "address"
        }
      ],
      "name": "NewPriceOracle",
      "type": "event"
    },
    {
      "anonymous": false,
      "inputs": [
        {
          "indexed": true,
          "internalType": "address",
          "name": "previousOwner",
          "type": "address"
        },
        {
          "indexed": true,
          "internalType": "address",
          "name": "newOwner",
          "type": "address"
        }
      ],
      "name": "OwnershipTransferred",
      "type": "event"
    },
    {
      "inputs": [
        {
          "internalType": "string",
          "name": "name",
          "type": "string"
        }
      ],
      "name": "available",
      "outputs": [
        {
          "internalType": "bool",
          "name": "",
          "type": "bool"
        }
      ],
      "stateMutability": "view",
      "type": "function"
    },
    {
      "inputs": [
        {
          "internalType": "bytes32",
          "name": "commitment",
          "type": "bytes32"
        }
      ],
      "name": "commit",
      "outputs": [],
      "stateMutability": "nonpayable",
      "type": "function"
    },
    {
      "inputs": [
        {
          "internalType": "bytes32",
          "name": "",
          "type": "bytes32"
        }
      ],
      "name": "commitments",
      "outputs": [
        {
          "internalType": "uint256",
          "name": "",
          "type": "uint256"
        }
      ],
      "stateMutability": "view",
      "type": "function"
    },
    {
      "inputs": [
        {
          "internalType": "string",
          "name": "name",
          "type": "string"
        },
        {
          "internalType": "address",
          "name": "owner",
          "type": "address"
        },
        {
          "internalType": "bytes32",
          "name": "secret",
          "type": "bytes32"
        }
      ],
      "name": "makeCommitment",
      "outputs": [
        {
          "internalType": "bytes32",
          "name": "",
          "type": "bytes32"
        }
      ],
      "stateMutability": "pure",
      "type": "function"
    },
    {
      "inputs": [
        {
          "internalType": "string",
          "name": "name",
          "type": "string"
        },
        {
          "internalType": "address",
          "name": "owner",
          "type": "address"
        },
        {
          "internalType": "bytes32",
          "name": "secret",
          "type": "bytes32"
        },
        {
          "internalType": "address",
          "name": "resolver",
          "type": "address"
        },
        {
          "internalType": "address",
          "name": "addr",
          "type": "address"
        }
      ],
      "name": "makeCommitmentWithConfig",
      "outputs": [
        {
          "internalType": "bytes32",
          "name": "",
          "type": "bytes32"
        }
      ],
      "stateMutability": "pure",
      "type": "function"
    },
    {
      "inputs": [],
      "name": "maxCommitmentAge",
      "outputs": [
        {
          "internalType": "uint256",
          "name": "",
          "type": "uint256"
        }
      ],
      "stateMutability": "view",
      "type": "function"
    },
    {
      "inputs": [],
      "name": "minCommitmentAge",
      "outputs": [
        {
          "internalType": "uint256",
          "name": "",
          "type": "uint256"
        }
      ],
      "stateMutability": "view",
      "type": "function"
    },
    {
      "inputs": [],
      "name": "owner",
      "outputs": [
        {
          "internalType": "address",
          "name": "",
          "type": "address"
        }
      ],
      "stateMutability": "view",
      "type": "function"
    },
    {
      "inputs": [
        {
          "internalType": "string",
          "name": "name",
          "type": "string"
        }
      ],
      "name": "price",
      "outputs": [
        {
          "internalType": "uint256",
          "name": "",
          "type": "uint256"
        }
      ],
      "stateMutability": "view",
      "type": "function"
    },
    {
      "inputs": [
        {
          "internalType": "string",
          "name": "name",
          "type": "string"
        },
        {
          "internalType": "address",
          "name": "owner",
          "type": "address"
        },
        {
          "internalType": "bytes32",
          "name": "secret",
          "type": "bytes32"
        }
      ],
      "name": "register",
      "outputs": [],
      "stateMutability": "payable",
      "type": "function"
    },
    {
      "inputs": [
        {
          "internalType": "string",
          "name": "name",
          "type": "string"
        },
        {
          "internalType": "address",
          "name": "owner",
          "type": "address"
        },
        {
          "internalType": "bytes32",
          "name": "secret",
          "type": "bytes32"
        },
        {
          "internalType": "address",
          "name": "resolver",
          "type": "address"
        },
        {
          "internalType": "address",
          "name": "addr",
          "type": "address"
        }
      ],
      "name": "registerWithConfig",
      "outputs": [],
      "stateMutability": "payable",
      "type": "function"
    },
    {
      "inputs": [],
      "name": "renounceOwnership",
      "outputs": [],
      "stateMutability": "nonpayable",
      "type": "function"
    },
    {
      "inputs": [],
      "name": "requireCommitReveal",
      "outputs": [
        {
          "internalType": "bool",
          "name": "",
          "type": "bool"
        }
      ],
      "stateMutability": "view",
      "type": "function"
    },
    {
      "inputs": [
        {
          "internalType": "uint256",
          "name": "_minCommitmentAge",
          "type": "uint256"
        },
        {
          "internalType": "uint256",
          "name": "_maxCommitmentAge",
          "type": "uint256"
        }
      ],
      "name": "setCommitmentAges",
      "outputs": [],
      "stateMutability": "nonpayable",
      "type": "function"
    },
    {
      "inputs": [
        {
          "internalType": "contract PriceOracle",
          "name": "_prices",
          "type": "address"
        }
      ],
      "name": "setPriceOracle",
      "outputs": [],
      "stateMutability": "nonpayable",
      "type": "function"
    },
    {
      "inputs": [
        {
          "internalType": "bool",
          "name": "_requireCommitReveal",
          "type": "bool"
        }
      ],
      "name": "setRequireCommitReveal",
      "outputs": [],
      "stateMutability": "nonpayable",
      "type": "function"
    },
    {
      "inputs": [
        {
          "internalType": "bytes4",
          "name": "interfaceID",
          "type": "bytes4"
        }
      ],
      "name": "supportsInterface",
      "outputs": [
        {
          "internalType": "bool",
          "name": "",
          "type": "bool"
        }
      ],
      "stateMutability": "pure",
      "type": "function"
    },
    {
      "inputs": [
        {
          "internalType": "address",
          "name": "newOwner",
          "type": "address"
        }
      ],
      "name": "transferOwnership",
      "outputs": [],
      "stateMutability": "nonpayable",
      "type": "function"
    },
    {
      "inputs": [
        {
          "internalType": "string",
          "name": "name",
          "type": "string"
        }
      ],
      "name": "valid",
      "outputs": [
        {
          "internalType": "bool",
          "name": "",
          "type": "bool"
        }
      ],
      "stateMutability": "pure",
      "type": "function"
    },
    {
      "inputs": [],
      "name": "withdraw",
      "outputs": [],
      "stateMutability": "nonpayable",
      "type": "function"
    }
  ],
  "transactionHash": "0x6f3787ce779ffacf0a6d238f209d155474e49b7dd124c1047ecc10b1eee3d000",
  "args": [
    "0x412C25ed3f7c688eEeF5E6A48612027388Bc9E63",
    "0x5cC73567d46df9f011cBAafee336514F8A893c40",
    60,
    604800
  ],
  "solcInputHash": "4f213114e8b4d533011999912bd2fcbf",
  "bytecode": "0x60806040526000805460ff60a01b191690553480156200001e57600080fd5b5060405162001d1538038062001d158339810160408190526200004191620000ce565b600080546001600160a01b031916339081178255604051909182917f8be0079c531659141344cd1fd0a4f28419497f9722a3daafe3b4186f6b6457e0908290a3508181116200008f57600080fd5b600180546001600160a01b039586166001600160a01b031991821617909155600280549490951693169290921790925560039190915560045562000133565b60008060008060808587031215620000e4578384fd5b8451620000f1816200011a565b602086015190945062000104816200011a565b6040860151606090960151949790965092505050565b6001600160a01b03811681146200013057600080fd5b50565b611bd280620001436000396000f3fe60806040526004361061015f5760003560e01c80639791c097116100c0578063f14fcbc811610074578063f34b95b311610059578063f34b95b3146103a6578063f49826be146103b9578063fe2c6198146103d957600080fd5b8063f14fcbc814610366578063f2fde38b1461038657600080fd5b8063b7c50ec8116100a5578063b7c50ec8146102fe578063ce1e09c01461031e578063d5141cf61461033457600080fd5b80639791c097146102be578063aeb8ce9b146102de57600080fd5b8063715018a611610117578063839df945116100fc578063839df945146102465780638d839ffe146102735780638da5cb5b1461028957600080fd5b8063715018a6146102115780637e3244791461022657600080fd5b80633d86c52f116101485780633d86c52f146101b0578063530e784f146101de5780636acb4f91146101fe57600080fd5b806301ffc9a7146101645780633ccfd60b14610199575b600080fd5b34801561017057600080fd5b5061018461017f3660046117fd565b6103f9565b60405190151581526020015b60405180910390f35b3480156101a557600080fd5b506101ae6104de565b005b3480156101bc57600080fd5b506101d06101cb366004611968565b610593565b604051908152602001610190565b3480156101ea57600080fd5b506101ae6101f9366004611779565b6106d8565b6101ae61020c366004611968565b6107c8565b34801561021d57600080fd5b506101ae610de4565b34801561023257600080fd5b506101ae6102413660046119e7565b610ed4565b34801561025257600080fd5b506101d06102613660046117cd565b60056020526000908152604090205481565b34801561027f57600080fd5b506101d060035481565b34801561029557600080fd5b5060005460405173ffffffffffffffffffffffffffffffffffffffff9091168152602001610190565b3480156102ca57600080fd5b506101846102d93660046118dd565b610f60565b3480156102ea57600080fd5b506101846102f93660046118dd565b610f75565b34801561030a57600080fd5b506101ae610319366004611795565b611038565b34801561032a57600080fd5b506101d060045481565b34801561034057600080fd5b506000546101849074010000000000000000000000000000000000000000900460ff1681565b34801561037257600080fd5b506101ae6103813660046117cd565b611103565b34801561039257600080fd5b506101ae6103a1366004611779565b61113d565b6101ae6103b4366004611859565b6112ee565b3480156103c557600080fd5b506101d06103d4366004611910565b611337565b3480156103e557600080fd5b506101d06103f43660046118dd565b61134f565b60007fffffffff0000000000000000000000000000000000000000000000000000000082167f01ffc9a700000000000000000000000000000000000000000000000000000000148061048c57507fffffffff0000000000000000000000000000000000000000000000000000000082167fa608d7c600000000000000000000000000000000000000000000000000000000145b806104d857507fffffffff0000000000000000000000000000000000000000000000000000000082167f574d8abe00000000000000000000000000000000000000000000000000000000145b92915050565b60005473ffffffffffffffffffffffffffffffffffffffff163314610564576040517f08c379a000000000000000000000000000000000000000000000000000000000815260206004820181905260248201527f4f776e61626c653a2063616c6c6572206973206e6f7420746865206f776e657260448201526064015b60405180910390fd5b60405133904780156108fc02916000818181858888f19350505050158015610590573d6000803e3d6000fd5b50565b8451602086012060009073ffffffffffffffffffffffffffffffffffffffff84161580156105d5575073ffffffffffffffffffffffffffffffffffffffff8316155b1561063b5760408051602081018390527fffffffffffffffffffffffffffffffffffffffff000000000000000000000000606089901b169181019190915260548101869052607401604051602081830303815290604052805190602001209150506106cf565b73ffffffffffffffffffffffffffffffffffffffff841661065b57600080fd5b60408051602081018390527fffffffffffffffffffffffffffffffffffffffff000000000000000000000000606089811b82169383019390935286831b811660548301529185901b9091166068820152607c8101869052609c01604051602081830303815290604052805190602001209150505b95945050505050565b60005473ffffffffffffffffffffffffffffffffffffffff163314610759576040517f08c379a000000000000000000000000000000000000000000000000000000000815260206004820181905260248201527f4f776e61626c653a2063616c6c6572206973206e6f7420746865206f776e6572604482015260640161055b565b600280547fffffffffffffffffffffffff00000000000000000000000000000000000000001673ffffffffffffffffffffffffffffffffffffffff83169081179091556040517ff261845a790fe29bbd6631e2ca4a5bdc83e6eed7c3271d9590d97287e00e912390600090a250565b6000805474010000000000000000000000000000000000000000900460ff166107f25760006107ff565b6107ff8686868686610593565b9050600061080d87836113f6565b875160208901209091508073ffffffffffffffffffffffffffffffffffffffff861615610c9a576001546040517fdbbdf0830000000000000000000000000000000000000000000000000000000081526004810183905230602482015273ffffffffffffffffffffffffffffffffffffffff9091169063dbbdf08390604401600060405180830381600087803b1580156108a657600080fd5b505af11580156108ba573d6000803e3d6000fd5b505050506000600160009054906101000a900473ffffffffffffffffffffffffffffffffffffffff1673ffffffffffffffffffffffffffffffffffffffff1663ddf7fcb06040518163ffffffff1660e01b815260040160206040518083038186803b15801561092857600080fd5b505afa15801561093c573d6000803e3d6000fd5b505050506040513d601f19601f8201168201806040525081019061096091906117e5565b6040805160208101929092528101849052606001604080517fffffffffffffffffffffffffffffffffffffffffffffffffffffffffffffffe081840301815282825280516020918201206001547f3f15457f000000000000000000000000000000000000000000000000000000008552925190945073ffffffffffffffffffffffffffffffffffffffff90921692633f15457f9260048083019392829003018186803b158015610a0f57600080fd5b505afa158015610a23573d6000803e3d6000fd5b505050506040513d601f19601f82011682018060405250810190610a47919061183d565b6040517f1896f70a0000000000000000000000000000000000000000000000000000000081526004810183905273ffffffffffffffffffffffffffffffffffffffff89811660248301529190911690631896f70a90604401600060405180830381600087803b158015610ab957600080fd5b505af1158015610acd573d6000803e3d6000fd5b5050505073ffffffffffffffffffffffffffffffffffffffff861615610b76576040517fd5fa2b000000000000000000000000000000000000000000000000000000000081526004810182905273ffffffffffffffffffffffffffffffffffffffff878116602483015288169063d5fa2b0090604401600060405180830381600087803b158015610b5d57600080fd5b505af1158015610b71573d6000803e3d6000fd5b505050505b6001546040517f28ed4f6c0000000000000000000000000000000000000000000000000000000081526004810184905273ffffffffffffffffffffffffffffffffffffffff8b81166024830152909116906328ed4f6c90604401600060405180830381600087803b158015610bea57600080fd5b505af1158015610bfe573d6000803e3d6000fd5b50506001546040517f23b872dd00000000000000000000000000000000000000000000000000000000815230600482015273ffffffffffffffffffffffffffffffffffffffff8d811660248301526044820187905290911692506323b872dd9150606401600060405180830381600087803b158015610c7c57600080fd5b505af1158015610c90573d6000803e3d6000fd5b5050505050610d48565b73ffffffffffffffffffffffffffffffffffffffff851615610cbb57600080fd5b6001546040517fdbbdf0830000000000000000000000000000000000000000000000000000000081526004810183905273ffffffffffffffffffffffffffffffffffffffff8a811660248301529091169063dbbdf08390604401600060405180830381600087803b158015610d2f57600080fd5b505af1158015610d43573d6000803e3d6000fd5b505050505b8773ffffffffffffffffffffffffffffffffffffffff16827f0667086d08417333ce63f40d5bc2ef6fd330e25aaaf317b7c489541f8fe600fa8b86604051610d91929190611a84565b60405180910390a382341115610dd957336108fc610daf8534611abe565b6040518115909202916000818181858888f19350505050158015610dd7573d6000803e3d6000fd5b505b505050505050505050565b60005473ffffffffffffffffffffffffffffffffffffffff163314610e65576040517f08c379a000000000000000000000000000000000000000000000000000000000815260206004820181905260248201527f4f776e61626c653a2063616c6c6572206973206e6f7420746865206f776e6572604482015260640161055b565b6000805460405173ffffffffffffffffffffffffffffffffffffffff909116907f8be0079c531659141344cd1fd0a4f28419497f9722a3daafe3b4186f6b6457e0908390a3600080547fffffffffffffffffffffffff0000000000000000000000000000000000000000169055565b60005473ffffffffffffffffffffffffffffffffffffffff163314610f55576040517f08c379a000000000000000000000000000000000000000000000000000000000815260206004820181905260248201527f4f776e61626c653a2063616c6c6572206973206e6f7420746865206f776e6572604482015260640161055b565b600391909155600455565b60006001610f6d836114a6565b101592915050565b80516020820120600090610f8883610f60565b801561103157506001546040517f96e494e80000000000000000000000000000000000000000000000000000000081526004810183905273ffffffffffffffffffffffffffffffffffffffff909116906396e494e89060240160206040518083038186803b158015610ff957600080fd5b505afa15801561100d573d6000803e3d6000fd5b505050506040513d601f19601f8201168201806040525081019061103191906117b1565b9392505050565b60005473ffffffffffffffffffffffffffffffffffffffff1633146110b9576040517f08c379a000000000000000000000000000000000000000000000000000000000815260206004820181905260248201527f4f776e61626c653a2063616c6c6572206973206e6f7420746865206f776e6572604482015260640161055b565b6000805491151574010000000000000000000000000000000000000000027fffffffffffffffffffffff00ffffffffffffffffffffffffffffffffffffffff909216919091179055565b600454600082815260056020526040902054429161112091611aa6565b1061112a57600080fd5b6000908152600560205260409020429055565b60005473ffffffffffffffffffffffffffffffffffffffff1633146111be576040517f08c379a000000000000000000000000000000000000000000000000000000000815260206004820181905260248201527f4f776e61626c653a2063616c6c6572206973206e6f7420746865206f776e6572604482015260640161055b565b73ffffffffffffffffffffffffffffffffffffffff8116611261576040517f08c379a000000000000000000000000000000000000000000000000000000000815260206004820152602660248201527f4f776e61626c653a206e6577206f776e657220697320746865207a65726f206160448201527f6464726573730000000000000000000000000000000000000000000000000000606482015260840161055b565b6000805460405173ffffffffffffffffffffffffffffffffffffffff808516939216917f8be0079c531659141344cd1fd0a4f28419497f9722a3daafe3b4186f6b6457e091a3600080547fffffffffffffffffffffffff00000000000000000000000000000000000000001673ffffffffffffffffffffffffffffffffffffffff92909216919091179055565b61133184848080601f01602080910402602001604051908101604052809392919081815260200183838082843760009201829052508793508692509050806107c8565b50505050565b6000611347848484600080610593565b949350505050565b6002546040517ffe2c619800000000000000000000000000000000000000000000000000000000815260009173ffffffffffffffffffffffffffffffffffffffff169063fe2c6198906113a6908590600401611a71565b60206040518083038186803b1580156113be57600080fd5b505afa1580156113d2573d6000803e3d6000fd5b505050506040513d601f19601f820116820180604052508101906104d891906117e5565b600061140183610f75565b61140a57600080fd5b60005474010000000000000000000000000000000000000000900460ff161561148c57600354600083815260056020526040902054429161144a91611aa6565b111561145557600080fd5b600454600083815260056020526040902054429161147291611aa6565b1161147c57600080fd5b6000828152600560205260408120555b60006114978461134f565b90508034101561103157600080fd5b8051600090819081905b808210156116cb5760008583815181106114f3577f4e487b7100000000000000000000000000000000000000000000000000000000600052603260045260246000fd5b01602001517fff000000000000000000000000000000000000000000000000000000000000001690507f80000000000000000000000000000000000000000000000000000000000000008110156115565761154f600184611aa6565b92506116b8565b7fe0000000000000000000000000000000000000000000000000000000000000007fff00000000000000000000000000000000000000000000000000000000000000821610156115ab5761154f600284611aa6565b7ff0000000000000000000000000000000000000000000000000000000000000007fff00000000000000000000000000000000000000000000000000000000000000821610156116005761154f600384611aa6565b7ff8000000000000000000000000000000000000000000000000000000000000007fff00000000000000000000000000000000000000000000000000000000000000821610156116555761154f600484611aa6565b7ffc000000000000000000000000000000000000000000000000000000000000007fff00000000000000000000000000000000000000000000000000000000000000821610156116aa5761154f600584611aa6565b6116b5600684611aa6565b92505b50826116c381611ad5565b9350506114b0565b50909392505050565b600082601f8301126116e4578081fd5b813567ffffffffffffffff808211156116ff576116ff611b3d565b604051601f83017fffffffffffffffffffffffffffffffffffffffffffffffffffffffffffffffe0908116603f0116810190828211818310171561174557611745611b3d565b8160405283815286602085880101111561175d578485fd5b8360208701602083013792830160200193909352509392505050565b60006020828403121561178a578081fd5b813561103181611b6c565b6000602082840312156117a6578081fd5b813561103181611b8e565b6000602082840312156117c2578081fd5b815161103181611b8e565b6000602082840312156117de578081fd5b5035919050565b6000602082840312156117f6578081fd5b5051919050565b60006020828403121561180e578081fd5b81357fffffffff0000000000000000000000000000000000000000000000000000000081168114611031578182fd5b60006020828403121561184e578081fd5b815161103181611b6c565b6000806000806060858703121561186e578283fd5b843567ffffffffffffffff80821115611885578485fd5b818701915087601f830112611898578485fd5b8135818111156118a6578586fd5b8860208285010111156118b7578586fd5b602092830196509450508501356118cd81611b6c565b9396929550929360400135925050565b6000602082840312156118ee578081fd5b813567ffffffffffffffff811115611904578182fd5b611347848285016116d4565b600080600060608486031215611924578283fd5b833567ffffffffffffffff81111561193a578384fd5b611946868287016116d4565b935050602084013561195781611b6c565b929592945050506040919091013590565b600080600080600060a0868803121561197f578081fd5b853567ffffffffffffffff811115611995578182fd5b6119a1888289016116d4565b95505060208601356119b281611b6c565b93506040860135925060608601356119c981611b6c565b915060808601356119d981611b6c565b809150509295509295909350565b600080604083850312156119f9578182fd5b50508035926020909101359150565b60008151808452815b81811015611a2d57602081850181015186830182015201611a11565b81811115611a3e5782602083870101525b50601f017fffffffffffffffffffffffffffffffffffffffffffffffffffffffffffffffe0169290920160200192915050565b6020815260006110316020830184611a08565b604081526000611a976040830185611a08565b90508260208301529392505050565b60008219821115611ab957611ab9611b0e565b500190565b600082821015611ad057611ad0611b0e565b500390565b60007fffffffffffffffffffffffffffffffffffffffffffffffffffffffffffffffff821415611b0757611b07611b0e565b5060010190565b7f4e487b7100000000000000000000000000000000000000000000000000000000600052601160045260246000fd5b7f4e487b7100000000000000000000000000000000000000000000000000000000600052604160045260246000fd5b73ffffffffffffffffffffffffffffffffffffffff8116811461059057600080fd5b801515811461059057600080fdfea26469706673582212200534728eb876b4fba0a10860cd00b28ee0013a65e0dff6a15f3d39baabcb0b4464736f6c63430008040033",
  "devdoc": {
    "details": "A registrar controller for registering names at fixed cost. An updated version of the previously deployed ETHRegistrarController.",
    "kind": "dev",
    "methods": {
      "owner()": {
        "details": "Returns the address of the current owner."
      },
      "renounceOwnership()": {
        "details": "Leaves the contract without owner. It will not be possible to call `onlyOwner` functions anymore. Can only be called by the current owner. NOTE: Renouncing ownership will leave the contract without an owner, thereby removing any functionality that is only available to the owner."
      },
      "transferOwnership(address)": {
        "details": "Transfers ownership of the contract to a new account (`newOwner`). Can only be called by the current owner."
      }
    },
    "version": 1
  },
  "userdoc": {
    "kind": "user",
    "methods": {},
    "version": 1
  },
  "storageLayout": {
    "storage": [
      {
        "astId": 545,
        "contract": "contracts/ethregistrar/ForeverRegistrarController.sol:ForeverRegistrarController",
        "label": "_owner",
        "offset": 0,
        "slot": "0",
        "type": "t_address"
      },
      {
        "astId": 10107,
        "contract": "contracts/ethregistrar/ForeverRegistrarController.sol:ForeverRegistrarController",
        "label": "requireCommitReveal",
        "offset": 20,
        "slot": "0",
        "type": "t_bool"
      },
      {
        "astId": 10154,
        "contract": "contracts/ethregistrar/ForeverRegistrarController.sol:ForeverRegistrarController",
        "label": "base",
        "offset": 0,
        "slot": "1",
        "type": "t_contract(BaseRegistrarImplementation)9474"
      },
      {
        "astId": 10157,
        "contract": "contracts/ethregistrar/ForeverRegistrarController.sol:ForeverRegistrarController",
        "label": "prices",
        "offset": 0,
        "slot": "2",
        "type": "t_contract(PriceOracle)10745"
      },
      {
        "astId": 10159,
        "contract": "contracts/ethregistrar/ForeverRegistrarController.sol:ForeverRegistrarController",
        "label": "minCommitmentAge",
        "offset": 0,
        "slot": "3",
        "type": "t_uint256"
      },
      {
        "astId": 10161,
        "contract": "contracts/ethregistrar/ForeverRegistrarController.sol:ForeverRegistrarController",
        "label": "maxCommitmentAge",
        "offset": 0,
        "slot": "4",
        "type": "t_uint256"
      },
      {
        "astId": 10165,
        "contract": "contracts/ethregistrar/ForeverRegistrarController.sol:ForeverRegistrarController",
        "label": "commitments",
        "offset": 0,
        "slot": "5",
        "type": "t_mapping(t_bytes32,t_uint256)"
      }
    ],
    "types": {
      "t_address": {
        "encoding": "inplace",
        "label": "address",
        "numberOfBytes": "20"
      },
      "t_bool": {
        "encoding": "inplace",
        "label": "bool",
        "numberOfBytes": "1"
      },
      "t_bytes32": {
        "encoding": "inplace",
        "label": "bytes32",
        "numberOfBytes": "32"
      },
      "t_contract(BaseRegistrarImplementation)9474": {
        "encoding": "inplace",
        "label": "contract BaseRegistrarImplementation",
        "numberOfBytes": "20"
      },
      "t_contract(PriceOracle)10745": {
        "encoding": "inplace",
        "label": "contract PriceOracle",
        "numberOfBytes": "20"
      },
      "t_mapping(t_bytes32,t_uint256)": {
        "encoding": "mapping",
        "key": "t_bytes32",
        "label": "mapping(bytes32 => uint256)",
        "numberOfBytes": "32",
        "value": "t_uint256"
      },
      "t_uint256": {
        "encoding": "inplace",
        "label": "uint256",
        "numberOfBytes": "32"
      }
    }
  }
}