{
  "address": "0x5cC73567d46df9f011cBAafee336514F8A893c40",
  "abi": [
    {
      "inputs": [
        {
          "internalType": "contract AggregatorInterface",
          "name": "_usdOracle",
          "type": "address"
        },
        {
          "internalType": "uint256[]",
          "name": "_prices",
          "type": "uint256[]"
        }
      ],
      "stateMutability": "nonpayable",
      "type": "constructor"
    },
    {
      "anonymous": false,
      "inputs": [
        {
          "indexed": false,
          "internalType": "address",
          "name": "oracle",
          "type": "address"
        }
      ],
      "name": "OracleChanged",
      "type": "event"
    },
    {
      "anonymous": false,
      "inputs": [
        {
          "indexed": true,
          "internalType": "address",
          "name": "previousOwner",
          "type": "address"
        },
        {
          "indexed": true,
          "internalType": "address",
          "name": "newOwner",
          "type": "address"
        }
      ],
      "name": "OwnershipTransferred",
      "type": "event"
    },
    {
      "anonymous": false,
      "inputs": [
        {
          "indexed": false,
          "internalType": "uint256[]",
          "name": "prices",
          "type": "uint256[]"
        }
      ],
      "name": "PriceChanged",
      "type": "event"
    },
    {
      "inputs": [],
      "name": "owner",
      "outputs": [
        {
          "internalType": "address",
          "name": "",
          "type": "address"
        }
      ],
      "stateMutability": "view",
      "type": "function"
    },
    {
      "inputs": [
        {
          "internalType": "string",
          "name": "name",
          "type": "string"
        }
      ],
      "name": "premium",
      "outputs": [
        {
          "internalType": "uint256",
          "name": "",
          "type": "uint256"
        }
      ],
      "stateMutability": "view",
      "type": "function"
    },
    {
      "inputs": [
        {
          "internalType": "string",
          "name": "name",
          "type": "string"
        }
      ],
      "name": "price",
      "outputs": [
        {
          "internalType": "uint256",
          "name": "",
          "type": "uint256"
        }
      ],
      "stateMutability": "view",
      "type": "function"
    },
    {
      "inputs": [
        {
          "internalType": "uint256",
          "name": "",
          "type": "uint256"
        }
      ],
      "name": "prices",
      "outputs": [
        {
          "internalType": "uint256",
          "name": "",
          "type": "uint256"
        }
      ],
      "stateMutability": "view",
      "type": "function"
    },
    {
      "inputs": [],
      "name": "renounceOwnership",
      "outputs": [],
      "stateMutability": "nonpayable",
      "type": "function"
    },
    {
      "inputs": [
        {
          "internalType": "contract AggregatorInterface",
          "name": "_usdOracle",
          "type": "address"
        }
      ],
      "name": "setOracle",
      "outputs": [],
      "stateMutability": "nonpayable",
      "type": "function"
    },
    {
      "inputs": [
        {
          "internalType": "uint256[]",
          "name": "_prices",
          "type": "uint256[]"
        }
      ],
      "name": "setPrices",
      "outputs": [],
      "stateMutability": "nonpayable",
      "type": "function"
    },
    {
      "inputs": [
        {
          "internalType": "bytes4",
          "name": "interfaceID",
          "type": "bytes4"
        }
      ],
      "name": "supportsInterface",
      "outputs": [
        {
          "internalType": "bool",
          "name": "",
          "type": "bool"
        }
      ],
      "stateMutability": "view",
      "type": "function"
    },
    {
      "inputs": [
        {
          "internalType": "address",
          "name": "newOwner",
          "type": "address"
        }
      ],
      "name": "transferOwnership",
      "outputs": [],
      "stateMutability": "nonpayable",
      "type": "function"
    },
    {
      "inputs": [],
      "name": "usdOracle",
      "outputs": [
        {
          "internalType": "contract AggregatorInterface",
          "name": "",
          "type": "address"
        }
      ],
      "stateMutability": "view",
      "type": "function"
    }
  ],
  "transactionHash": "0x4e9f9ab3ae120efa48cd7429e40dd21fd474054a2a675f5063b5bd70e4e6505f",
  "args": [
    "0xa92F3BE2dFf40c82b902Ffa82e50B1db414bC7E1",
    [
      "1000000000000000000000",
      "500000000000000000000",
      "100000000000000000000"
    ]
  ],
  "solcInputHash": "4f213114e8b4d533011999912bd2fcbf",
  "bytecode": "0x60806040523480156200001157600080fd5b50604051620012df380380620012df8339810160408190526200003491620001bb565b600080546001600160a01b031916339081178255604051909182917f8be0079c531659141344cd1fd0a4f28419497f9722a3daafe3b4186f6b6457e0908290a350600280546001600160a01b0319166001600160a01b0384161790556200009b81620000a3565b505062000305565b6000546001600160a01b03163314620001025760405162461bcd60e51b815260206004820181905260248201527f4f776e61626c653a2063616c6c6572206973206e6f7420746865206f776e6572604482015260640160405180910390fd5b80516200011790600190602084019062000154565b507f205152ff14678ea9d228fb51f9d3551e83109917eff381ef94f92aef647fb01581604051620001499190620002a9565b60405180910390a150565b82805482825590600052602060002090810192821562000192579160200282015b828111156200019257825182559160200191906001019062000175565b50620001a0929150620001a4565b5090565b5b80821115620001a05760008155600101620001a5565b60008060408385031215620001ce578182fd5b82516001600160a01b0381168114620001e5578283fd5b602084810151919350906001600160401b038082111562000204578384fd5b818601915086601f83011262000218578384fd5b8151818111156200022d576200022d620002ef565b8060051b604051601f19603f83011681018181108582111715620002555762000255620002ef565b604052828152858101935084860182860187018b101562000274578788fd5b8795505b838610156200029857805185526001959095019493860193860162000278565b508096505050505050509250929050565b6020808252825182820181905260009190848201906040850190845b81811015620002e357835183529284019291840191600101620002c5565b50909695505050505050565b634e487b7160e01b600052604160045260246000fd5b610fca80620003156000396000f3fe608060405234801561001057600080fd5b50600436106100be5760003560e01c80638fb0068811610076578063c8a4271f1161005b578063c8a4271f1461018e578063f2fde38b146101ae578063fe2c6198146101c157600080fd5b80638fb006881461015a578063bc31c1c11461017b57600080fd5b806379cf92d3116100a757806379cf92d3146100f55780637adbf973146101085780638da5cb5b1461011b57600080fd5b806301ffc9a7146100c3578063715018a6146100eb575b600080fd5b6100d66100d1366004610d12565b6101d4565b60405190151581526020015b60405180910390f35b6100f361026d565b005b6100f3610103366004610c34565b610362565b6100f3610116366004610c18565b610431565b60005473ffffffffffffffffffffffffffffffffffffffff165b60405173ffffffffffffffffffffffffffffffffffffffff90911681526020016100e2565b61016d610168366004610d6a565b610525565b6040519081526020016100e2565b61016d610189366004610dd7565b610575565b6002546101359073ffffffffffffffffffffffffffffffffffffffff1681565b6100f36101bc366004610c18565b610596565b61016d6101cf366004610d6a565b610747565b60007fffffffff0000000000000000000000000000000000000000000000000000000082167f01ffc9a700000000000000000000000000000000000000000000000000000000148061026757507fffffffff0000000000000000000000000000000000000000000000000000000082167f719c671000000000000000000000000000000000000000000000000000000000145b92915050565b60005473ffffffffffffffffffffffffffffffffffffffff1633146102f3576040517f08c379a000000000000000000000000000000000000000000000000000000000815260206004820181905260248201527f4f776e61626c653a2063616c6c6572206973206e6f7420746865206f776e657260448201526064015b60405180910390fd5b6000805460405173ffffffffffffffffffffffffffffffffffffffff909116907f8be0079c531659141344cd1fd0a4f28419497f9722a3daafe3b4186f6b6457e0908390a3600080547fffffffffffffffffffffffff0000000000000000000000000000000000000000169055565b60005473ffffffffffffffffffffffffffffffffffffffff1633146103e3576040517f08c379a000000000000000000000000000000000000000000000000000000000815260206004820181905260248201527f4f776e61626c653a2063616c6c6572206973206e6f7420746865206f776e657260448201526064016102ea565b80516103f6906001906020840190610bb8565b507f205152ff14678ea9d228fb51f9d3551e83109917eff381ef94f92aef647fb015816040516104269190610def565b60405180910390a150565b60005473ffffffffffffffffffffffffffffffffffffffff1633146104b2576040517f08c379a000000000000000000000000000000000000000000000000000000000815260206004820181905260248201527f4f776e61626c653a2063616c6c6572206973206e6f7420746865206f776e657260448201526064016102ea565b600280547fffffffffffffffffffffffff00000000000000000000000000000000000000001673ffffffffffffffffffffffffffffffffffffffff83169081179091556040519081527f0e05ae75e8b926552cf6fcd744d19f422561e3ced1e426868730852702dbe41890602001610426565b600061056e61056984848080601f01602080910402602001604051908101604052809392919081815260200183838082843760009201919091525061085792505050565b61085d565b9392505050565b6001818154811061058557600080fd5b600091825260209091200154905081565b60005473ffffffffffffffffffffffffffffffffffffffff163314610617576040517f08c379a000000000000000000000000000000000000000000000000000000000815260206004820181905260248201527f4f776e61626c653a2063616c6c6572206973206e6f7420746865206f776e657260448201526064016102ea565b73ffffffffffffffffffffffffffffffffffffffff81166106ba576040517f08c379a000000000000000000000000000000000000000000000000000000000815260206004820152602660248201527f4f776e61626c653a206e6577206f776e657220697320746865207a65726f206160448201527f646472657373000000000000000000000000000000000000000000000000000060648201526084016102ea565b6000805460405173ffffffffffffffffffffffffffffffffffffffff808516939216917f8be0079c531659141344cd1fd0a4f28419497f9722a3daafe3b4186f6b6457e091a3600080547fffffffffffffffffffffffff00000000000000000000000000000000000000001673ffffffffffffffffffffffffffffffffffffffff92909216919091179055565b60008061078984848080601f01602080910402602001604051908101604052809392919081815260200183838082843760009201919091525061091a92505050565b60015490915081111561079b57506001545b600081116107a857600080fd5b600060016107b68184610ec1565b815481106107ed577f4e487b7100000000000000000000000000000000000000000000000000000000600052603260045260246000fd5b9060005260206000200154905061084361083c86868080601f01602080910402602001604051908101604052809392919081815260200183838082843760009201919091525061085792505050565b8290610b48565b905061084e8161085d565b95945050505050565b50600090565b600080600260009054906101000a900473ffffffffffffffffffffffffffffffffffffffff1673ffffffffffffffffffffffffffffffffffffffff166350d25bcd6040518163ffffffff1660e01b815260040160206040518083038186803b1580156108c857600080fd5b505afa1580156108dc573d6000803e3d6000fd5b505050506040513d601f19601f820116820180604052508101906109009190610d52565b905061056e81610914856305f5e100610b64565b90610b96565b8051600090819081905b80821015610b3f576000858381518110610967577f4e487b7100000000000000000000000000000000000000000000000000000000600052603260045260246000fd5b01602001517fff000000000000000000000000000000000000000000000000000000000000001690507f80000000000000000000000000000000000000000000000000000000000000008110156109ca576109c3600184610e33565b9250610b2c565b7fe0000000000000000000000000000000000000000000000000000000000000007fff0000000000000000000000000000000000000000000000000000000000000082161015610a1f576109c3600284610e33565b7ff0000000000000000000000000000000000000000000000000000000000000007fff0000000000000000000000000000000000000000000000000000000000000082161015610a74576109c3600384610e33565b7ff8000000000000000000000000000000000000000000000000000000000000007fff0000000000000000000000000000000000000000000000000000000000000082161015610ac9576109c3600484610e33565b7ffc000000000000000000000000000000000000000000000000000000000000007fff0000000000000000000000000000000000000000000000000000000000000082161015610b1e576109c3600584610e33565b610b29600684610e33565b92505b5082610b3781610ed8565b935050610924565b50909392505050565b600080610b558385610e33565b90508381101561056e57600080fd5b600082610b7357506000610267565b6000610b7f8385610e84565b905082610b8c8583610e4b565b1461056e57600080fd5b6000808211610ba457600080fd5b6000610bb08385610e4b565b949350505050565b828054828255906000526020600020908101928215610bf3579160200282015b82811115610bf3578251825591602001919060010190610bd8565b50610bff929150610c03565b5090565b5b80821115610bff5760008155600101610c04565b600060208284031215610c29578081fd5b813561056e81610f6f565b60006020808385031215610c46578182fd5b823567ffffffffffffffff80821115610c5d578384fd5b818501915085601f830112610c70578384fd5b813581811115610c8257610c82610f40565b8060051b6040517fffffffffffffffffffffffffffffffffffffffffffffffffffffffffffffffe0603f83011681018181108582111715610cc557610cc5610f40565b604052828152858101935084860182860187018a1015610ce3578788fd5b8795505b83861015610d05578035855260019590950194938601938601610ce7565b5098975050505050505050565b600060208284031215610d23578081fd5b81357fffffffff000000000000000000000000000000000000000000000000000000008116811461056e578182fd5b600060208284031215610d63578081fd5b5051919050565b60008060208385031215610d7c578081fd5b823567ffffffffffffffff80821115610d93578283fd5b818501915085601f830112610da6578283fd5b813581811115610db4578384fd5b866020828501011115610dc5578384fd5b60209290920196919550909350505050565b600060208284031215610de8578081fd5b5035919050565b6020808252825182820181905260009190848201906040850190845b81811015610e2757835183529284019291840191600101610e0b565b50909695505050505050565b60008219821115610e4657610e46610f11565b500190565b600082610e7f577f4e487b710000000000000000000000000000000000000000000000000000000081526012600452602481fd5b500490565b6000817fffffffffffffffffffffffffffffffffffffffffffffffffffffffffffffffff0483118215151615610ebc57610ebc610f11565b500290565b600082821015610ed357610ed3610f11565b500390565b60007fffffffffffffffffffffffffffffffffffffffffffffffffffffffffffffffff821415610f0a57610f0a610f11565b5060010190565b7f4e487b7100000000000000000000000000000000000000000000000000000000600052601160045260246000fd5b7f4e487b7100000000000000000000000000000000000000000000000000000000600052604160045260246000fd5b73ffffffffffffffffffffffffffffffffffffffff81168114610f9157600080fd5b5056fea2646970667358221220b4dde9bd025a6d55167855e63f3553ba347e6c59ce8d9ce5ae3c9ebf25d55c3f64736f6c63430008040033",
  "devdoc": {
    "kind": "dev",
    "methods": {
      "owner()": {
        "details": "Returns the address of the current owner."
      },
      "premium(string)": {
        "details": "Returns the pricing premium in wei."
      },
      "price(string)": {
        "details": "Returns the price to register a name.",
        "params": {
          "name": "The name being registered."
        },
        "returns": {
          "_0": "The price of this registration, in wei."
        }
      },
      "renounceOwnership()": {
        "details": "Leaves the contract without owner. It will not be possible to call `onlyOwner` functions anymore. Can only be called by the current owner. NOTE: Renouncing ownership will leave the contract without an owner, thereby removing any functionality that is only available to the owner."
      },
      "setOracle(address)": {
        "details": "Sets the price oracle address",
        "params": {
          "_usdOracle": "The address of the price oracle to use."
        }
      },
      "setPrices(uint256[])": {
        "details": "Sets prices.",
        "params": {
          "_prices": "The price array. Each element corresponds to a specific                    name length; names longer than the length of the array                    default to the price of the last element. Values are                    in base price units, equal to one attodollar (1e-18                    dollar) each."
        }
      },
      "transferOwnership(address)": {
        "details": "Transfers ownership of the contract to a new account (`newOwner`). Can only be called by the current owner."
      }
    },
    "version": 1
  },
  "userdoc": {
    "kind": "user",
    "methods": {},
    "version": 1
  },
  "storageLayout": {
    "storage": [
      {
        "astId": 545,
        "contract": "contracts/ethregistrar/StablePriceOracle.sol:StablePriceOracle",
        "label": "_owner",
        "offset": 0,
        "slot": "0",
        "type": "t_address"
      },
      {
        "astId": 10902,
        "contract": "contracts/ethregistrar/StablePriceOracle.sol:StablePriceOracle",
        "label": "prices",
        "offset": 0,
        "slot": "1",
        "type": "t_array(t_uint256)dyn_storage"
      },
      {
        "astId": 10905,
        "contract": "contracts/ethregistrar/StablePriceOracle.sol:StablePriceOracle",
        "label": "usdOracle",
        "offset": 0,
        "slot": "2",
        "type": "t_contract(AggregatorInterface)10891"
      }
    ],
    "types": {
      "t_address": {
        "encoding": "inplace",
        "label": "address",
        "numberOfBytes": "20"
      },
      "t_array(t_uint256)dyn_storage": {
        "base": "t_uint256",
        "encoding": "dynamic_array",
        "label": "uint256[]",
        "numberOfBytes": "32"
      },
      "t_contract(AggregatorInterface)10891": {
        "encoding": "inplace",
        "label": "contract AggregatorInterface",
        "numberOfBytes": "20"
      },
      "t_uint256": {
        "encoding": "inplace",
        "label": "uint256",
        "numberOfBytes": "32"
      }
    }
  }
}